:020000040000FA
:100000008A11EE2FFF1B0C2883137F18831700081B
:10001000840A0319FF0A080000308A000408840AD1
:1000200082070034083402340334023402341034BA
:1000300000341034003410340034103400340034F0
:100040000034003400343C340034003400340034D4
:100050000034003400340034003400340034003400
:1000600000340034003400340034003400340134EF
:1000700000340034183400341834003400340034B0
:1000800000340034003400340034003400340034D0
:1000900000340034003400340034003400340034C0
:1000A00000340034003400340034003400340034B0
:100836000134003400340034F200043084008A119C
:100846000C20F000720A840083130008F10070087F
:100856007102080083120313A0007C08FD00200823
:10086600023E84007D088313800020088A116827D1
:100876000800213083120313AA002A08A7008A1150
:100886006C268A1183120313200801398A114D241C
:10089600053E080083120313A900A801291C572C42
:1008A6002708FD007D08A8070310A70D0310A90C53
:1008B6002908031D512C280808008A113C248A1196
:1008C60083120313B1003108AB00A0308A11AF24A4
:1008D6008A11A0308A11B1268A11A0308A11082700
:1008E6008A110028F5007508F4007408F600013036
:1008F600F2020030031CF303F302720A0319730AAF
:10090600031908007008F40076088400740883133D
:1009160080000130F4007408F6077A2CF400F50123
:100926007508F00070077407F1007108033E840033
:1009360083130008F200840A0008F300F31FA52CB5
:10094600013008000130F0007008F5070430750228
:10095600031C932C0030080083120313AD000030F3
:10096600F000F1004E30F2000030F3002D088A113D
:1009760075248A11831203132B08AC002C08A100DE
:100986002D08403E8A11CE248A11831203132D08A6
:100996008A111225080083120313A4000130840073
:1009A6008A110C208A11A2008A110C208A11A30038
:1009B60024088400220883138000840A2308800008
:1009C60024080B3E840080012108A2002208FC00B6
:1009D60024088A112D240800F4000830F10071085B
:1009E600F500F6017408F10007300310F10CFF3E24
:1009F600031DF82C7608F20072077104F3007308E1
:100A0600F6000310F40D70087602031C0C2D700816
:100A1600F6020130F502031DF52C76080800FC00ED
:100A26007C08403E8A111F248A11F3007308FB00DC
:100A3600FD017D08F30073077C07F4007408433E4C
:100A4600840083130008F500840A0008F6007B087A
:100A5600F70077077C07F8007D08F9007907780723
:100A6600FA007A08840075088004840A76088004EF
:100A76000130F3007308FD0704307D0203180800F7
:100A86001C2DFC007C08033EF0000030F1008A11AA
:100A96002B268A1183120313A0007C080B3E8400C8
:100AA60083130008A10003300310A10DFF3E031DB0
:100AB600572D7C08023E840000082107A200013061
:100AC6002207A3002308F0000030031D8030F10048
:100AD6008A112B268A11831203132006031D752DF6
:100AE6000130080000300800FC007C08403E8A11F6
:100AF6001F248A11F3007308FB00FD017D08F30033
:100B060073077C07F4007408433E840083130008CF
:100B1600F500840A0008F600F509F6097B08F700D7
:100B260077077C07F8007D08F90079077807FA004F
:100B36007A08840075088005840A760880050130E5
:100B4600F3007308FD0704307D0203180800812DA9
:100B56000030FC000030FB000030FA000030F900E5
:100B6600701CC92D7408F907750803110318013E96
:100B7600031DFA07760803110318013E031DFB0740
:100B8600770803110318013E031DFC070130F80026
:100B96000310F40DF50DF60DF70DF80BCB2D013006
:100BA6000310F30CF20CF10CF00CFF3E031DD32DD9
:100BB6007308720471047004031DB32D7C08F300DE
:100BC6007B08F2007A08F1007908F0000800F400CA
:100BD6007408403E8A111F248A1183120313A00051
:100BE6002008F300F5017508A00020077407A1008E
:100BF6007308A20022072107A30023088400831399
:100C06000008A400840A0008A5007508A6002607A7
:100C16007407A7002708433E84000008A800840A3A
:100C26000008A90024082805AA0025082905AB0004
:100C36002A082B040319212E013008000130A000D8
:100C46002008F50704307502031CF62D0030080055
:100C5600F901FB010130F7000030F800FA017B08CA
:100C6600F20072077007840071080318710A831274
:100C76000313FF008A1102208A11F3008A11022051
:100C86008A11F40077087305F50078087405F600F4
:100C9600750876040319532E0130F2007208F9071D
:100CA60001300310F70DF80DFF3E031D542E0130E1
:100CB600F2007208FA0710307A02031C322E013055
:100CC600F2007208FB0704307B02031C2D2E790804
:100CD6000800831203133508F3003408F2003308C2
:100CE600F1003208F0004130F700C630F6004E3011
:100CF600F5006D30F4008A11AB258A117308831252
:100D06000313B5007208B4007108B3007008B2008E
:100D16003930B207303003183130B30700300318CA
:100D26000130B407003003180130B5073208A200BD
:100D36003308A3003408A4003508A5001030A60027
:100D4600250DA50CA40CA30CA20CA60BA32EFF30FC
:100D56002205A0007F302305A1000800831203139B
:100D6600B0003008403E8A1191248A11003A031DD2
:100D760008008312031330088A1177258A1183121B
:100D86000313AE012E08AC002C073007AD002D086A
:100D9600433E840003108313800D840A800D840370
:100DA6000130AC002C08AE0704302E02031CC52E01
:100DB60030088A11EA258A11003A0319FC2E83129B
:100DC6000313AF012F08AC002C073007AD002D0828
:100DD600433E8400840A03108313800C8403800C32
:100DE6000130AC002C08AF0704302F020318042F83
:100DF600E52E831203133008403E8400013083132E
:100E0600800230088A111225080083120313AF00EE
:100E16002F088A1177258A11831203132F084B3E58
:100E2600840083130008AC002C08AE000130AC002F
:100E36002F084B3E84002C0880072F08423E840072
:100E4600000884008A110C208A11AC002C08F000DE
:100E56002F084B3E840000088A11EF248A11831262
:100E66000313AD002F084B3E84002D08831380002A
:100E76002F08403E8A1168278A11831203132F0810
:100E8600403E8A1144258A11003A0319532F8312D2
:100E960003132F088A11EA258A11003A0319622FD3
:100EA600831203132E08AC002F084B3E84002C0837
:100EB600831380002F08403E8A1168278A11831207
:100EC60003132F088A1112250800FB00F9017B087D
:100ED6000B3E840083130008F00003300310F00D6E
:100EE600FF3E031D712F7B08023E84000008700739
:100EF600F1007908F20072077107013E84008A1139
:100F06000C208A11F3008A110C208A11F40079084A
:100F1600F50075077B07F6007608033E8400730824
:100F26008000840A740880000130F0007008F90718
:100F360004307902031C6A2F7B0884000008F00045
:100F4600033084008A110C208A11F10070087102A6
:100F5600083EF2007208FA007A08803A7F3E031CC7
:100F6600D02FF7017708F00070077B07F1007108B2
:100F7600033E84007A0AC42F0310800D840A800D74
:100F86008403FF3E031DBF2F0130F0007008F707F2
:100F96000430770203180800B52FFA09FA0AF80197
:100FA6007808F00070077B07F1007108033E8400A3
:100FB6007A0AE22F840A0310800C8403800CFF3E19
:100FC600031DDD2F0130F0007008F80704307802A9
:100FD60003180800D32F8A111B248A11B2008A1124
:100FE6001C248A11B3008A111D248A11B4008A11A7
:0A0FF6001E24B50083018A11602C4F
:00000001FF
