:020000040000FA
:100000008A11E72F00308A000408840A820700342E
:10001000083402340334023402341034003410340F
:100020000034103400341034003400340034003410
:1000300000343C34003400340034003400340034E4
:100040000034003400340034003400340034003410
:1000500000340034003400340034013400340034FF
:1000600018340034183400340034003400340034C0
:1000700000340034003400340034003400340034E0
:1000800000340034003400340034003400340034D0
:0C0090000034003400340034003400342C
:100FB2008A110028013400340034003464008001B6
:100FC200840A0406031900340406E02F8A11DB2781
:100FD2008A11F0008A11DC278A11F1008A11DD27BB
:100FE2008A11F2008A11DE278A11F300831320305E
:0E0FF20084006E308A11DF2783018A11D92F07
:00000001FF
