:020000040000FA
:040000008A110B282E
:10000800FE00030EF1000A08F2008A15552F8A1126
:100018000D28831603138A11FD278A11E400831221
:1000280003138A15FD258A11C7008A15FE258A1132
:10003800C8008A15FF258A11C9008A150026CA003A
:1000480083160313E301FA0183018A11BD2BF6001D
:1000580000308312031306190130F30076088A155D
:1000680076278A1100308312031386190130F300B2
:100078007608013E8A1576278A1100308312031309
:10008800061A0130F3007608023E8A1576278A118F
:1000980000308312031386180130F3007608033EFC
:1000A8008A15762708008A11D2258A11831203132C
:1000B8002908B2002808B1000730AF000030B000AE
:1000C8008A1139258A11831203133008B6002F08C4
:1000D800B5002230B7000030B8008A11CA201630A7
:1000E80083120313BB008130BC0035083B07AC000A
:1000F80036080318360A3C07AD00080083120313BC
:10010800A40124088A153F268A1100308A154B2637
:100118008A1183120313A30100308A1529268A1134
:10012800013083120313A2002208A30740302302E0
:10013800031C90280130A2002208A40708302402DA
:10014800031808008528F500B3280030080001309E
:10015800080003300800053008000730080075085B
:10016800F300F4017408003A0319BB28B128730896
:10017800003A0319A928013A0319AB28033A0319CD
:10018800AD28013A0319AF28B128080083120313D8
:10019800B901BA01351CD6283708B9070318BA0AB5
:1001A8003808BA0701300310B70DB80DFF3E031D1C
:1001B800D72801300310B60CB50CFF3E031DDE280E
:1001C80035083604031DCE283A08B6003908B500AC
:1001D800080083120313AA002A08023E8400780844
:1001E80083138000840A790880002A088A11B222C1
:0201F8000800FD
:10020000FF1B0A2983137F1883170008840A031928
:10021000FF0A08007F087F398A000408840A03194E
:10022000FF0A8200083402340334023449340234B1
:1002300010340034103400341034003410340034DE
:1002400000340034003400343C34003400340034D2
:1002500000340034003400340034003400340034FE
:1002600000340034003400340034003400340034EE
:100270004F3401340034003418340034183400345E
:1002800000340034003400340034003400340034CE
:1002900000340034003400340034003400340034BE
:1002A00000340034003400340034003400340034AE
:1002B0000034003454340434003400341034003436
:1002C0003834003400340034003400341034003446
:1002D0001834003410340034003400340034003456
:1002E0003834003410340034003400341034003416
:1002F00030340034103400344C34043400340034CE
:100300001034003410340034183400340034003415
:1003100008340034383400340034003400340034FD
:1003200030340034103400341034003400340034DD
:100330000034003438340034203400344A34043477
:1003400000340034103400341034003430340034BD
:1003500000340034203400343834003400340034A5
:1003600000340034183400341034003410340034B5
:100370000034003420340034383400340034003485
:100380005334023400340034183400343034003430
:100390000034003400340034103400341834003495
:1003A00008340034003400340034003400340034A5
:1003B000003400340034003400340034003400349D
:1003C000003400345A340234003400343034003401
:1003D000183400340034003400340034083400345D
:1003E0001834003410340034003400340034003445
:1003F000003400340034003400340034003400345D
:10040000003400340034003483120313A40002309B
:10041000A5000030A6000130A7000030A800AE0102
:1004200002308A159C268A11831203132E088A151E
:100430003F268A1108308A154B268A11083083120C
:100440000313A2002208AD00A9012908A200220777
:100450002407A3002308840083130008AA00840A49
:100460000008AB00AF0127082A05A20028082B05C9
:10047000A300220823040319412A0F30A2002208F6
:10048000AF0025082A05A20026082B05A300220894
:10049000230403194F2AF030A2002208AF043F3092
:1004A0002D06031D7E2A2F088A1529268A11013060
:1004B0008A159C268A11831203132E088A153F265B
:1004C0008A1100308A154B268A11831203132F08D4
:1004D0008A1529268A11831203132F088A152926C3
:1004E0008A11831203132F088A1529268A11831271
:1004F00003132F088A1529268A118D2AAC012F088B
:100500008A1529268A11013083120313A2002208BA
:10051000AC0705302C02031C7F2A01308312031321
:10052000A2002208A9070530A2002208AD078030EA
:100530002D02031C252A02300310A50DA60DFF3E37
:10054000031D9C2A02300310A70DA80DFF3E031DBA
:10055000A32A0130A2002208AE0708302E02031899
:100560000800102AF700F5017708023E8400831383
:10057000000883120313A000840A0008A100770872
:100580000C3E84000008A20002300310A20DFF3EC2
:10059000031DC52A0310220D023E2007A3002108D7
:1005A0000318013EA4007508A50025072307840051
:1005B00024080318240AFF008A1100218A11A600CA
:1005C0008A1100218A11A7007508A800280777075B
:1005D000A9002908043E8400260883138000840AA9
:1005E000270880000130A0002008F50704307502BC
:1005F000031CB42A770884000008A000143084008B
:100600008130FF008A1100218A11A10020082102F7
:10061000083EA2002208F6007608803A7F3E031CBE
:100620002E2BF3017308A00020077707A1002108F3
:10063000043E8400760A8313222B0310800D840A63
:10064000800D8403FF3E031D1D2B0130A0002008F8
:10065000F3070430730203180800122BF609F60A98
:10066000F4017408A00020077707A1002108043EC8
:100670008400760A8313412B840A0310800C8403C0
:10068000800CFF3E031D3C2B0130A0002008F40726
:100690000430740203180800312B83120313B300D3
:1006A00033088A1154278A118312031333083C3EFE
:1006B000840083130008AC002C08B2000130AC00A9
:1006C00033083C3E84002C0880070130AC00003029
:1006D000AD003308323E84000008AE00840A0008F2
:1006E000AF002C082E0784002D0803182D0A2F07B1
:1006F000FF008A1100218A11B0003008F30033088E
:100700003C3E8400831300088A15DD278A1183127A
:100710000313B10033083C3E84003108831380008A
:100720003308303E8A11B2228A1183120313330830
:10073000303E8A111D278A11003A0319A82B831213
:10074000031333088A11DC268A11003A0319B72BE8
:10075000831203133208AC0033083C3E84002C089B
:10076000831380003308303E8A11B2228A1183122B
:10077000031333088A11252408008A1512268A11CA
:100780008A150C268A118A1597278A118A15AC2694
:100790008A1103308A159C268A118A1182208A11B7
:1007A0008A151F268A118A1534268A118A11572024
:1007B0008A11831203132C08C2002D08C300A43031
:1007C0008A1536278A11A0308A1570268A118A1553
:1007D00001268A11A0308A112B208A118316031357
:1007E000201CF62BA4308A11E2248A1183160313ED
:1007F000211CFE2BA4308A1189248A11831603132D
:10080000231C062CA4308A114D238A11831603134E
:10081000A21C0D2CE401E40A152C103083120313E2
:10082000C600460883160313E40063080319202C4E
:10083000E301A4308A1186258A11003A0319D62BC8
:10084000A4308A1104228A11EA2BF9007908303E7B
:100850008A11EB278A1183120313A0002008F600E7
:10086000F7017708A00020077907A1002108343E8E
:10087000840083130008A200840A0008A300220851
:1008800023040319552C76087707A000A101A10DB8
:100890002108803AFF0080307F02031D512C183060
:1008A0002002031C552C0030080001308312031372
:1008B000A0002008F70704307702031C312CF80150
:1008C0007808A00020077907A1002108343E8400A1
:1008D00083130008A200840A0008A3007608A4007D
:1008E00024077907A5007808A60026072507A70092
:1008F0002708840022088004840A23088004013029
:10090000A0002008F80704307802031C602C013096
:10091000080083120313B0003008303E8A151827F0
:100920008A11003A031D08008312031330088A114C
:1009300054278A1183120313AE012E08AC002C0732
:100940003007AD002D08343E8400840A0310831361
:10095000800C8403800C0130AC002C08AE070430FE
:100960002E02031C9D2C30088A11DC268A11003AC5
:100970000319D42C83120313AF012F08AC002C07EA
:100980003007AD002D08343E840003108313800D22
:10099000840A800D84030130AC002C08AF070430BA
:1009A0002F020318DE2CBD2C013083120313AC0080
:1009B0003008303E84002C088313800730088A11E9
:1009C0002524080083120313B0003008303E8A1536
:1009D000FA268A11003A031D080083120313300817
:1009E0008A1154278A1183120313AE012E08AC001A
:1009F0002C073007AD002D08343E8400031083130C
:100A0000800D840A800D84030130AC002C08AE07F1
:100A100004302E02031CF62C30088A11DC268A11C1
:100A2000003A03192D2D83120313AF012F08AC00D8
:100A30002C073007AD002D08343E8400840A0310D3
:100A40008313800C8403800C0130AC002C08AF07AA
:100A500004302F020318352D162D8312031330088E
:100A6000303E840001308313800230088A1125242F
:100A7000080083120313B401B21F452DB109B20956
:100A8000B10A0319B20AB401B40AB01F4C2DAF0960
:100A9000B009AF0A0319B00A2F0830040319792DE1
:100AA000B301B30AB01B602D01300310AF0DB00DC0
:100AB000FF3E031D552D0130F8007808B307522D75
:100AC00030083202031D662D2F083102031C6E2DE3
:100AD0002F08B1023008031CB203B2020130031028
:100AE000B00CAF0CFF3E031D6F2D0130B302031D90
:100AF000602D34080319812DB109B209B10A031917
:100B0000B20A3208B0003108AF00080083120313A4
:100B1000C50045088A11BB278A11003A031DD02D54
:100B20008312031345088A118A278A11831203133B
:100B3000C2004208C40044088A11A7208A11831207
:100B40000313C200C30145083D3E840042088313DD
:100B50008007840F00080318000AFF0043087F077E
:100B6000800084038A1157208A11831203132C08F2
:100B7000BD002D08BE004508303E8A15BA278A11EF
:100B80008312031345088A11DC268A11003A0319DF
:100B9000CB2D003008008312031345088A11252449
:100BA00001300800831203134A08A3004908A20079
:100BB0004808A1004708A0004130A700C630A600A1
:100BC0004E30A5006D30A4008A115A268A11831276
:100BD00003132308CA002208C9002108C8002008FE
:100BE000C7003930C707303003183130C80700302C
:100BF00003180130C907003003180130CA0747083D
:100C0000AA004808AB004908AC004A08AD00103003
:100C1000AE002D0DAD0CAC0CAB0CAA0CAE0B092E1E
:100C2000FF302A05A8007F302B05A9000800831299
:100C30000313A0007308F4007408A100210803192D
:100C40004E2E2108F40074072007F5007508840073
:100C500083130008F600840A0008F700760877047A
:100C600003194E2E2108F40074072007F5007508BB
:100C7000FE3E84000008F600840A0008F700210800
:100C8000F80078072007F9007908840076088000CA
:100C9000840A770880000130A1021E2E2108F4008A
:100CA00074072007F5007508840083138001840A07
:100CB000800108000030F7000030F6000030F50039
:100CC0000030F40083120313201C7A2E2408F4074A
:100CD000250803110318013E031DF507260803111B
:100CE0000318013E031DF607270803110318013EF0
:100CF000031DF7070130F3000310A40DA50DA60D89
:100D0000A70DF30B7C2E01300310A30CA20CA10C39
:100D1000A00CFF3E031D842E23082204210420047E
:100D2000031D622E7708A3007608A2007508A100B3
:100D30007408A000080083120313A201A40101306B
:100D4000A0000030A100A3012408F5007507730777
:100D5000840074080318740AFF008A1100218A11A4
:100D6000F6008A1100218A11F70020087605F800A4
:100D700021087705F900780879040319C32E01309A
:100D8000F5007508A20701300310A00DA10DFF3E6C
:100D9000031DC42E0130F5007508A307103023028F
:100DA000031CA42E0130F5007508A40704302402AA
:100DB000031C9F2E22080800F8007808303E8A1194
:100DC000EB278A1183120313A0002008F600F70115
:100DD0007708A00020077807A1007608A200220764
:100DE0002107A3002308840083130008A400840AB9
:100DF0000008A5007708A60026077807A70027089F
:100E0000343E84000008A800840A0008A9002408D1
:100E10002805AA0025082905AB002A082B04031978
:100E2000132F013008000130A0002008F70704301C
:100E30007702031CE82E0030080083120313A90078
:100E40002908043EF3000030F4008A119B268A1121
:100E500083120313A5002908023E840083130008AF
:100E6000A600840A0008A70029080C3E8400000898
:100E7000A80002300310A80DFF3E031D3A2F0310F7
:100E8000280D023E2607F30027080318013EF40050
:100E90008A119B268A11831203132506031D522FE4
:100EA0000130080000300800F7007708303E8A1152
:100EB000EB278A1183120313A0002008F600F80123
:100EC0007808A00020077707A1002108343E84009D
:100ED00083130008A200840A0008A300A209A30942
:100EE0007608A40024077707A5007808A60026073F
:100EF0002507A7002708840022088005840A230804
:100F000080050130A0002008F8070430780203189B
:100F10000800602F83120313A700A601A801280868
:100F2000A20022072707A3002308840083130008D8
:100F3000A400840A0008A500240A031DB12F250A75
:100F4000031DB12F2808A2002208F30027088A11E8
:100F500017268A11013083120313A2002208A60764
:100F6000B52F0130A2002208A80718302802031C60
:100F70008F2F2608080083120313AD002D088A1155
:100F800054278A11013083120313AC002D08313E1F
:100F900084002C08831380072D088A11DC268A110F
:100FA000003A031DDC2F831203132D088A11252418
:100FB0008A11003A031DE92F831203132D08313ED5
:100FC00084000130831380022D088A11252400300B
:100FD000080001300800F5001530840081308312CC
:100FE0000313FF008A110021F300750A84008313A4
:0C0FF0000008F4007308740208001034BC
:101BFA000134003400340034831203138E018F0140
:101C0A0008008B170B1683160313011308008A1595
:101C1A0063268A158A1506260800831603130F16EB
:101C2A008F160F1708008A157E268A15003A03199F
:101C3A000800182E3F3083120313A0002008F80072
:101C4A0000308A15C326080083120313A100210855
:101C5A00A0002008F80001308A15C3260800831660
:101C6A0003130C148312031390100B17101410167D
:101C7A009012080083120313A1002108B838A000AB
:101C8A002008F80000308A15C326080083120313BF
:101C9A00A10021084038A0002008F80000308A1569
:101CAA00C326080083120313A1002108C038A0002C
:101CBA002008F80000308A15C3260800FF30831672
:101CCA00031386008316031789011F308316031333
:101CDA0095008113080083120313A0000030F3005B
:101CEA00F4000430F5000030F60020088A15DE26DC
:101CFA0008008A158C268A15F5007508F700F60182
:101D0A00F60AF71F771A8A2EF60176080800FF30BE
:101D1A00831603138500831203138715071108140A
:101D2A000508F3007308F400081074080800F300AB
:101D3A00F31CA32E831203130710A62E8312031378
:101D4A000714731CAA2E8710080087140800831230
:101D5A000313881000000000000000008312031320
:101D6A008814000000308A153F268A1500308A152B
:101D7A004B268A1500308A1557260800F9008A155D
:101D8A0018268A15831603138501831203138711F4
:101D9A00791CD32E831203130715D62E831203132D
:101DAA00071178088500081400008312031308102D
:101DBA000800F9007908F7007708F8000130F50201
:101DCA000030031CF603F602750A0319760A031992
:101DDA0008007308F70078088400770883138000E6
:101DEA000130F7007708F807E32EF700F8017808C2
:101DFA00F30073077707F4007408043E8400831322
:101E0A000008F500840A0008F600F61F0E2F0130BC
:101E1A0008000130F3007308F80704307802031C45
:101E2A00FC2E00300800F700F8017808F300730769
:101E3A007707F4007408043E840083130008F50051
:101E4A00840A0008F600751C2C2F013008000130A6
:101E5A00F3007308F80704307802031C1A2F0030C5
:101E6A00080083120313C4000030F300F4003F306B
:101E7A00F5000030F60044088A15DE268A1583121A
:101E8A0003134208BD004308BE004408303E8A15C9
:101E9A00BA278A158312031344088A1125240800D5
:101EAA000B1A8B1C592F8B10831603130C1C6F2FC4
:101EBA00831203130C1C6F2F0C100130F0007008F2
:101ECA00FA078316031364087A02031C6F2FE301CF
:101EDA00E30AFA0172088A00710E8300FE0E7E0E72
:101EEA000900F5007308031D8F2F7508840003107D
:101EFA008313801C0314003003180130F4007508A2
:101F0A00840000087406FE3974068000750884008F
:101F1A008014080075088400831300107508840073
:101F2A0080100800831603178901FF3083160313F4
:101F3A008600FF30950081138312031386018316EE
:101F4A00031388018312031388018316031387017D
:101F5A008312031387018316031788018316031359
:101F6A008501831203138501080083120313C1003C
:101F7A00123084008130FF008A1100218A15BF00C7
:101F8A008A1100218A15C000410884003F08831382
:101F9A008000840A4008800041080C3E84008001C9
:101FAA003D08F8003E08F90041088A11ED200800B2
:101FBA00F7000830F4007408F800F9017708F40013
:101FCA0007300310F40CFF3E031DE62F7908F500D5
:101FDA0075077404F6007608F9000310F70D730804
:101FEA007902031CFA2F7308F9020130F802031D63
:061FFA00E32F7908080046
:04400E00F4E0FFFFDC
:00000001FF
