:020000040000FA
:040000008A110B282E
:100006000C34FE00030EF1000A08F2008A150E2CCD
:100016008A110D28831603138A1103208A11E4001E
:10002600831203138A152B228A11C7008A152C22E4
:100036008A11C8008A152D228A11C9008A152E2216
:10004600CA0083160313E301FA0183018A119E2F66
:1000560083120313B401B21F3728B109B209B10ADA
:100066000319B20AB401B40AB01F3E28AF09B00999
:10007600AF0A0319B00A2F08300403196B28B3011D
:10008600B30AB01B522801300310AF0DB00DFF3E6E
:10009600031D47280130F8007808B30744283008C4
:1000A6003202031D58282F083102031C60282F082E
:1000B600B1023008031CB203B20201300310B00CC7
:1000C600AF0CFF3E031D61280130B302031D522809
:1000D600340803197328B109B209B10A0319B20A1F
:1000E6003208B0003108AF00080083120313C500C0
:1000F60045088A15A8258A11003A031DC2288312CD
:10010600031345088A15D8258A1183120313C200E2
:100116004208C40044088A15DC248A11831203139A
:10012600C200C30145083D3E840042088313800790
:10013600840F00080318000AFF0043087F078000A9
:1001460084038A1524258A11831203132C08BD0003
:100156002D08BE004508303E8A1573248A11831285
:10016600031345088A15B5268A11003A0319BD28D6
:10017600003008008312031345088A118A260130CD
:10018600080083120313A9002908043EF300003077
:10019600F4008A15F6268A1183120313A50029088E
:1001A600023E840083130008A600840A0008A70004
:1001B60029080C3E84000008A80002300310A80D90
:1001C600FF3E031DE1280310280D023E2607F3001B
:1001D60027080318013EF4008A15F6268A118312B1
:1001E60003132506031DF928013008000030080016
:1001F600831203138E018F010800FF1B0A29831344
:100206007F1883170008840A0319FF0A08007F086D
:100216007F398A000408840A0319FF0A8200003421
:100226000034003400340034003400340034003428
:100236000034003400340034003400340034003418
:100246000034003400340034003400340034003408
:1002560000340034003400340034003400340034F8
:1002660000340034003400340034003400340034E8
:1002760000340034003400340034003400340034D8
:1002860000340034003400340034003400340034C8
:1002960000340034003400340034003400340034B8
:1002A60000340034003400340034003400340034A8
:1002B6000034003400340034003400340034003498
:1002C6000034003400340034003400340034003488
:1002D6000034003400340034003400340034003478
:1002E6000034003400340034003400340034003468
:1002F6000034003400340034003400340034003458
:100306000034003400340034003400340034003447
:100316000034003400340034003400340034003437
:100326000034003400340034003400340034003427
:100336000034003400340034003400340034003417
:1003460000340034003404341834E034003400340B
:100356003834F834F034C0340034E034E034003457
:100366000034003400340034FE34FE3400340034EB
:100376000034FF34003400340034003400340034D8
:1003860000340034003400340034003400340034C7
:1003960000340034003400340034003400340034B7
:1003A60000340034003400340034003400340034A7
:1003B6000034003400340034003400340034003497
:1003C6000034003400340034003401341E34E03488
:1003D600003400340134F334F33483348334833407
:1003E600C334FB347B34033403340334E034F8344D
:1003F60000340334FC340034003400340034003458
:100406000034003400340034003400340034003446
:100416000034003400340034003400340034003436
:100426000034003400340034003400340034003426
:100436000034003400340034003400340034003416
:1004460000340034003400340034003400340734FF
:10045600F8347C343C343934393439343934393429
:100466003934383438347C340034003407341F349B
:100476000034C0343F3400340034003400340034D7
:1004860000340034003400340034003400340034C6
:1004960000340034003400340034003400340034B6
:1004A60000340034003400340034003400340034A6
:1004B6000034003400340034003400340034003496
:1004C6000034003400340034003400340034003486
:1004D6000734003400347134713469346D34653452
:1004E60067346334633460340034003400340034D9
:1004F60000340F3400340034003400340034003447
:100506000034003400340034003400340034003445
:100516000034003400340034003400340034003435
:100526000034003400340034003400340034003425
:100536000034003400340034003400340034003415
:100546000034003400340034003400340034003405
:1005560000340034003400340034003400340034F5
:1005660000340034003400340034003400340034E5
:1005760000340034003400340034003400340034D5
:1005860000340034003400340034003400340034C5
:1005960000340034003400340034003400340034B5
:1005A60000340034003400340034003400340034A5
:1005B6000034003400340034003400340034003495
:1005C6000034003400340034003400340034003485
:1005D6000034003400340034003400340034003475
:1005E6000034003400340034003400340034003465
:1005F6000034003400340034003400340034003455
:100606000034003400340034003400340034003444
:10061600003400340034003400340034003408342C
:1006260002340334023449340234103400341034B2
:1006360000341034003410340034003400340034F4
:1006460000343C34003400340034003400340034C8
:1006560000340034003400340034003400340034F4
:10066600003400340034003400344F340134003494
:1006760000341834003418340034003400340034A4
:1006860000340034003400340034003400340034C4
:1006960000340034003400340034003400340034B4
:1006A6000034003400340034003400340034543450
:1006B6000434003400341034003438340034003448
:1006C600003400340034103400341834003410344C
:1006D600003400340034003400343834003410342C
:1006E6000034003400341034003430340034103414
:1006F60000344C34043400340034103400341034E4
:1007060000341834003400340034083400343834EB
:1007160000340034003400340034303400341034F3
:1007260000341034003400340034003400343834DB
:100736000034203400344A34043400340034103495
:1007460000341034003430340034003400342034A3
:1007560000343834003400340034003400341834A3
:1007660000341034003410340034003400342034A3
:100776000034383400340034003453340234003446
:10078600003418340034303400340034003400347B
:100796000034103400341834003408340034003483
:1007A60000340034003400340034003400340034A3
:1007B60000340034003400340034003400345A3439
:1007C6000234003400343034003418340034003439
:1007D6000034003400340834003418340034103443
:1007E6000034003400340034003400340034003463
:1007F6000034003400340034003400340034003453
:10080600003402308A15C0228A1100308A157D22F2
:100816008A1183120313AC012C088A1571228A11DE
:1008260083120313AA012A08A200A3012C08A4001C
:10083600A5010630FF000310A40DA50DFF0B1E2C0D
:100846001230A6008130A70024082607A800250834
:100856000318250A2707A900220828078400230869
:100866000318230A2907FF008A1100218A118A1515
:100876005B228A11831203132A08A200A3012C0803
:10088600A400A5010630FF000310A40DA50DFF0B63
:10089600472C1230A6008130A70024082607A8009E
:1008A60025080318250A2707A90022082807840017
:1008B60023080318230A2907FF008A1100218A1139
:1008C6008A155B228A11013083120313A2002208C3
:1008D600AA0720302A02031C162C0130A200220887
:1008E600AC0708302C02031C0F2C01308A15C022DD
:1008F6008A1100308A157D228A1183120313AD01F5
:100906002D088A1571228A11203083120313A20042
:100916002208AB002B08A200A3012D08A400A50104
:100926000630FF000310A40DA50DFF0B952C123009
:10093600A6008130A70024082607A800250803186A
:10094600250A2707A9002208280784002308031878
:10095600230A2907FF008A1100218A118A155B22C2
:100966008A11831203132B08A200A3012D08A400E9
:10097600A5010630FF000310A40DA50DFF0BBE2C2C
:100986001230A6008130A70024082607A8002508F3
:100996000318250A2707A900220828078400230828
:1009A6000318230A2907FF008A1100218A118A15D4
:1009B6005B228A11013083120313A2002208AB07BF
:1009C60040302B02031C8D2C0130A2002208AD07FB
:1009D60008302D0203180800832CF700F50177086C
:1009E600023E84008313000883120313A000840AC6
:1009F6000008A10077080C3E84000008A20002301F
:100A06000310A20DFF3E031D032D0310220D023E0F
:100A16002007A30021080318013EA4007508A500BD
:100A260025072307840024080318240AFF008A11D7
:100A360000218A11A6008A1100218A11A7007508D3
:100A4600A80028077707A9002908043E840026087D
:100A560083138000840A270880000130A000200844
:100A6600F50704307502031CF22C77088400000891
:100A7600A000143084008330FF008A1100218A11FF
:100A8600A10020082102083EA2002208F6007608EE
:100A9600803A7F3E031C6C2DF3017308A0002007EB
:100AA6007707A1002108043E8400760A8313602D8F
:100AB6000310800D840A800D8403FF3E031D5B2D09
:100AC6000130A0002008F307043073020318080061
:100AD600502DF609F60AF4017408A00020077707DE
:100AE600A1002108043E8400760A83137F2D840A20
:100AF6000310800C8403800CFF3E031D7A2D013009
:100B0600A0002008F40704307402031808006F2DB3
:100B160083120313A900AA0102308A15C0228A1182
:100B260008308A157D228A118312031322088A153A
:100B360071228A11083083120313A7002708AE001A
:100B46002A08A70027072907A80028088400831376
:100B56000008AB00840A0008AC00AF0123082B058F
:100B6600A70024082C05A800270828040319BF2D70
:100B76000F30A7002708AF0025082B05A700260879
:100B86002C05A800270828040319CD2DF030A7004E
:100B96002708AF043F302E06031DFC2D2F088A15AB
:100BA6005B228A1101308A15C0228A11831203132F
:100BB60022088A1571228A1100308A157D228A112F
:100BC600831203132F088A155B228A1183120313DB
:100BD6002F088A155B228A11831203132F088A15A0
:100BE6005B228A11831203132F088A155B228A114E
:100BF6000B2EAD012F088A155B228A110130831254
:100C06000313A7002708AD0705302D02031CFD2D91
:100C1600013083120313A7002708AA070530A7008F
:100C26002708AE0780302E0203180800A32D831272
:100C36000313B30033088A153E268A118312031361
:100C460033083C3E840083130008AC002C08B20035
:100C56000130AC0033083C3E84002C08800701308C
:100C6600AC000030AD003308323E84000008AE0010
:100C7600840A0008AF002C082E0784002D080318EC
:100C86002D0A2F07FF008A1100218A11B0003008B3
:100C9600F30033083C3E8400831300088A1596242B
:100CA6008A1183120313B10033083C3E84003108D5
:100CB600831380003308303E8A11F0248A11831290
:100CC60003133308303E8A11C4208A11003A0319EF
:100CD600752E8312031333088A15B5268A11003A36
:100CE6000319842E831203133208AC0033083C3EEA
:100CF60084002C08831380003308303E8A11F024C8
:100D06008A118312031333088A118A260800F90010
:100D16007908303E8A15F0228A1183120313A00047
:100D26002008F600F7017708A00020077907A10040
:100D36002108343E840083130008A200840A0008B8
:100D4600A300220823040319BA2E76087707A00009
:100D5600A101A10D2108803AFF0080307F02031D0A
:100D6600B62E18302002031CBA2E003008000130BF
:100D760083120313A0002008F70704307702031C30
:100D8600962EF8017808A00020077907A10021080F
:100D9600343E840083130008A200840A0008A300DE
:100DA6007608A40024077907A5007808A600260778
:100DB6002507A7002708840022088004840A230840
:100DC60080040130A0002008F80704307802031CD4
:100DD600C52E0130080083120313B0003008303EE0
:100DE6008A15B2238A11003A031D080083120313E1
:100DF60030088A153E268A1183120313AE012E0887
:100E0600AC002C073007AD002D08343E8400840A60
:100E160003108313800C8403800C0130AC002C0873
:100E2600AE0704302E02031C022F30088A15B526A1
:100E36008A11003A0319392F83120313AF012F08C1
:100E4600AC002C073007AD002D08343E840003109B
:100E56008313800D840A800D84030130AC002C08B6
:100E6600AF0704302F020318432F222F01308312BD
:100E76000313AC003008303E84002C08831380072F
:100E860030088A118A26080083120313B00030083E
:100E9600303E8A1594238A11003A031D08008312F6
:100EA600031330088A153E268A1183120313AE01F6
:100EB6002E08AC002C073007AD002D08343E840008
:100EC60003108313800D840A800D84030130AC0067
:100ED6002C08AE0704302E02031C5B2F30088A153F
:100EE600B5268A11003A0319922F83120313AF0114
:100EF6002F08AC002C073007AD002D08343E8400C7
:100F0600840A03108313800C8403800C0130AC0028
:100F16002C08AF0704302F0203189A2F7B2F831259
:100F260003133008303E84000130831380023008FA
:100F36008A118A2608008A1578238A118A150223BF
:100F46008A118A1524258A11831203132C08C200DC
:100F56002D08C300A4308A15EF238A11A0308A1504
:100F660095228A118A11FB208A11A0308A154F25F5
:100F76008A1183160313201CC42FA4308A11472715
:100F86008A1183160313211CCC2FA4308A11EE2656
:100F96008A1183160313231CD42FA4308A111A2610
:100FA6008A1183160313A21CDB2FE401E40AE32F44
:100FB6000C3083120313C600460883160313E4009D
:100FC60063080319EE2FE301A4308A1178208A11F1
:100FD600003A0319A42FA4308A1509268A11B82FBE
:100FE600FF308316031386008316031789011F300B
:0A0FF6008316031395008113080011
:1014560001340034003400348B170B168316031343
:10146600011308008A11F3278A158A152F2208000E
:10147600831603130F168F160F1708008A15A3225B
:101486008A15003A03190800412A83120313250816
:10149600C7002608C800C901CA0108003F308312E8
:1014A6000313A0002008F80000308A154123080025
:1014B60083120313A1002108A0002008F8000130C0
:1014C6008A1541230800831603130C148312031391
:1014D60090100B17101410169012080083120313A5
:1014E600A1002108B838A0002008F80000308A15AD
:1014F6004123080083120313A10021084038A000ED
:101506002008F80000308A154123080083120313CF
:10151600A1002108C038A0002008F80000308A1574
:101526004123080083120313A0000030F300F400E7
:101536000430F5000030F60020088A155C23080008
:101546008A15D0228A15F5007508F700F601F60A05
:10155600F71F771AAF2AF6017608080083120313DD
:10156600A9002530A7002708F3000230A8002808A4
:10157600F40029088A1574260800F300F31CC72A0C
:10158600831203130710CA2A831203130714731C4A
:10159600CE2A8710080087140800FF30831603132D
:1015A6008500831203138715071108140508F30035
:1015B6007308F40008107408080083120313AA00C5
:1015C6002A08023E8400780883138000840A79087A
:1015D60080002A088A11F0240800F50015308400DE
:1015E600833083120313FF008A110021F300750A6A
:1015F600840083130008F4007308740208008A113B
:1016060004248A151D3083120313B0006930AF001D
:10161600A430AE00AE0B0D2BAF0B0D2BB00B0D2B6C
:10162600142B080083120313A2002208A00020082E
:10163600F3000230A1002108F40023308A157B252F
:10164600831203132408F9002308F8000800831204
:10165600031388100000000000000000831203132B
:101666008814000000308A1571228A1500308A1508
:101676007D228A1500308A1589220800F9008A150C
:1016860041228A15831603138501831203138711DA
:10169600791C512B831203130715542B8312031342
:1016A6000711780885000814000083120313081038
:1016B6000800F9007908F7007708F8000130F5020C
:1016C6000030031CF603F602750A0319760A03199D
:1016D60008007308F70078088400770883138000F1
:1016E6000130F7007708F807612B8A153B228A1527
:1016F6008A15D0238A158A1566228A158A153522F7
:101706008A158A1550248A158A152A238A150330C4
:101716008A15C0228A158A15FF248A158A15512230
:101726000800F700F8017808F30073077707F4005C
:101736007408043E840083130008F500840A000838
:10174600F600F61FA82B013008000130F3007308DD
:10175600F80704307802031C962B00300800F700C7
:10176600F8017808F30073077707F4007408043E5D
:10177600840083130008F500840A0008F600751C2F
:10178600C62B013008000130F3007308F807043057
:101796007802031CB42B0030080001308A1515238B
:1017A6008A15790883120313A6007808A5008A15FE
:1017B60048228A1501308A1515238A157808013EB4
:1017C60083120313A50079080318013E003EA60004
:1017D60001308A15B122080083120313C4000030B9
:1017E600F300F4003F30F5000030F60044088A1597
:1017F6005C238A15831203134208BD004308BE000A
:101806004408303E8A1573248A158312031344084C
:101816008A118A2608000B1A8B1C122C8B10831631
:1018260003130C1C282C831203130C1C282C0C10DD
:101836000130F0007008FA078316031364087A0271
:10184600031C282CE301E30AFA0172088A00710ED0
:101856008300FE0E7E0E0900F5007308031D482C5A
:101866007508840003108313801C031400300318CA
:101876000130F4007508840000087406FE39740609
:10188600800075088400801408007508840083139E
:10189600001075088400801008008316031789015C
:1018A600FF30831603138600FF30950081138312E1
:1018B6000313860183160313880183120313880119
:1018C60083160313870183120313870183160317F5
:1018D600880183160313850183120313850108000B
:1018E60083120313C100123084008330FF008A1173
:1018F60000218A15BF008A1100218A15C0004108FF
:1019060084003F0883138000840A40088000410851
:101916000C3E840080013D08F8003E08F9004108AD
:101926008A15E0220800F7000830F4007408F80071
:10193600F9017708F40007300310F40CFF3E031D8D
:101946009F2C7908F50075077404F6007608F900EF
:101956000310F70D73087902031CB32C7308F90200
:101966000130F802031D9C2C79080800831203132A
:10197600B901BA01351CC52C3708B9070318BA0ACC
:101986003808BA0701300310B70DB80DFF3E031D26
:10199600C62C01300310B60CB50CFF3E031DCD2C32
:1019A60035083604031DBD2C3A08B6003908B500C3
:1019B6000800F500E82C003008000130080003306C
:1019C600080005300800073008007508F300F40128
:1019D6007408003A0319F02CE62C7308003A031930
:1019E600DE2C013A0319E02C033A0319E22C013AE2
:1019F6000319E42CE62C080083120313A40124081F
:101A06008A1571228A1500308A157D228A1583125D
:101A16000313A30100308A155B228A150130831255
:101A26000313A2002208A30740302302031C0D2D36
:101A36000130A2002208A407083024020318080077
:101A4600022D8A15BB278A15831203132908B200B3
:101A56002808B1000730AF000030B0008A112B20F3
:101A66008A15831203133008B6002F08B5002230FA
:101A7600B7000030B8008A15B92416308312031354
:101A8600BB008330BC0035083B07AC0036080318A2
:101A9600360A3C07AD000800F60000308312031337
:101AA60006190130F30076088A152F248A150030AE
:101AB6008312031386190130F3007608013E8A1556
:101AC6002F248A15003083120313061A0130F300FF
:101AD6007608023E8A152F248A15003083120313D6
:101AE60086180130F3007608033E8A152F24080075
:101AF600F7007708F5007508F600831603178C18AB
:101B0600802D7308831203178D000130F402740AC6
:101B160003190800831603178C188D2D7F30F500E6
:101B260075088C050C14831203170C08F50076084B
:101B360084007508831380000130F5007508F607E8
:101B46000130F50075088D07882D83120313AD004B
:101B56002D088A153E268A15013083120313AC0020
:101B66002D08313E84002C08831380072D088A1522
:101B7600B5268A15003A031DC92D831203132D08B5
:101B86008A118A268A15003A031DD62D831203135D
:101B96002D08313E84000130831380022D088A11FE
:101BA6008A26003008000130080083120313A700BC
:101BB600A601A8012808A20022072707A3002308D8
:101BC600840083130008A400840A0008A500240AE0
:101BD600031DFF2D250A031DFF2D2808A20022083C
:101BE600F30027088A1578278A1501308312031314
:101BF600A2002208A607032E0130A2002208A80789
:101C060018302802031CDD2D260808008312031352
:101C1600B1000230B2000030B3000130B400003031
:101C2600B500B6013608B0003008A2003508A40099
:101C36003408A3003308A6003208A50031088A112B
:101C46008B258A150230831203130310B20DB30DD0
:101C5600FF3E031D282E02300310B40DB50DFF3EC6
:101C6600031D2F2E0130B0003008B60708303602AB
:101C760003180800152EF7007708303E8A15F02263
:101C86008A1583120313A0002008F600F8017808CD
:101C9600A00020077707A1002108343E84008313A3
:101CA6000008A200840A0008A300A209A309760876
:101CB600A40024077707A5007808A60026072507AD
:101CC600A7002708840022088005840A23088005C7
:101CD6000130A0002008F807043078020318080035
:101CE6004A2EF7007308F5007508F60083160317E9
:101CF6008C18792E7708FF3E831203178D007F30EC
:101D0600F5007508831603178C050130F402740A72
:101D160003190800831603178C188D2E7608840085
:101D260083130008831203178C000130F500750831
:101D3600F6070130F50075088D07831203130310AB
:101D46008B1B03148B13831603170C1555308D004C
:101D5600AA308D008C140C1183120313031C882ED9
:101D66008B17882EF8007808303E8A15F0228A15DF
:101D760083120313A0002008F600F7017708A000DD
:101D860020077807A1007608A20022072107A300F2
:101D96002308840083130008A400840A0008A50011
:101DA6007708A60026077807A7002708343E840090
:101DB6000008A800840A0008A90024082805AA002B
:101DC60025082905AB002A082B040319EC2E01303F
:101DD60008000130A0002008F70704307702031C32
:101DE600C12E0030080083120313A201A4010130A2
:101DF600A0000030A100A3012408F50075077307B1
:101E0600840074080318740AFF008A1100218A15D9
:101E1600F6008A1100218A15F70020087605F800D9
:101E260021087705F9007808790403191E2F013077
:101E3600F5007508A20701300310A00DA10DFF3EA5
:101E4600031D1F2F0130F5007508A307103023026C
:101E5600031CFF2E0130F5007508A4070430240288
:101E6600031CFA2E220808000030F7000030F600A6
:101E76000030F5000030F40083120313201C572FA6
:101E86002408F407250803110318013E031DF5076E
:101E9600260803110318013E031DF6072708031140
:101EA6000318013E031DF7070130F3000310A40DCC
:101EB600A50DA60DA70DF30B592F01300310A30C8A
:101EC600A20CA10CA00CFF3E031D612F23082204C7
:101ED60021042004031D3F2F7708A3007608A200E3
:101EE6007508A1007408A000080083120313A0005F
:101EF6007308F4007408A10021080319AF2F210804
:101F0600F40074072007F5007508840083130008A1
:101F1600F600840A0008F700760877040319AF2F45
:101F26002108F40074072007F5007508FE3E8400BA
:101F36000008F600840A0008F7002108F800780770
:101F46002007F9007908840076088000840A77085B
:101F560080000130A1027F2F2108F40074072007BA
:101F6600F5007508840083138001840A8001080047
:101F7600831203134A08A3004908A2004808A100D7
:101F86004708A0004130A700C630A6004E30A50085
:101F96006D30A4008A1537278A1583120313230888
:101FA600CA002208C9002108C8002008C700393025
:101FB600C707303003183130C80700300318013026
:101FC600C907003003180130CA074708AA004808A5
:101FD600AB004908AC004A08AD001030AE002D0D2C
:101FE600AD0CAC0CAB0CAA0CAE0BF22FFF302A05D5
:0A1FF600A8007F302B05A9000800A9
:04400E00F4E0FFFFDC
:06420000000000000000B8
:00000001FF
