:020000040000FA
:040000008A110B282E
:100006001034FE00030EF1000A08F2008A15E72AF2
:100016008A110D28831603138A1103208A11E4001E
:10002600831203138A1530218A11C7008A153121DC
:100036008A11C8008A1532218A11C9008A1533210E
:10004600CA0083160313E301FA0183018A112B28E0
:100056008A11FA208A118A15A9228A118A153F2146
:100066008A118A1529238A118A151F228A110330BB
:100076008A15C8218A118A15D8238A118A154C2116
:100086008A118A1561218A118A15FD238A11831224
:1000960003132C08C2002D08C300A4308A15C822F9
:1000A6008A11A0308A159D218A118A1534218A1158
:1000B600A0308A1528248A1183160313201C67286A
:1000C600A4308A15A9278A1183160313211C6F28C9
:1000D600A4308A119E278A1183160313231C7728BE
:1000E600A4308A112E278A1183160313A21C7E2898
:1000F600E401E40A8628103083120313C60046087A
:1001060083160313E400630803199128E301A4305E
:100116008A1510278A11003A03194728A4308A1530
:10012600E2248A115B28F9007908303E8A15F82105
:100136008A1183120313A0002008F600F70177083E
:10014600A00020077907A1002108343E840083130C
:100156000008A200840A0008A30022082304031949
:10016600C62876087707A000A101A10D2108803ACC
:10017600FF0080307F02031DC22818302002031CB6
:10018600C62800300800013083120313A00020089F
:10019600F70704307702031CA228F8017808A000AC
:1001A60020077907A1002108343E84008313000844
:1001B600A200840A0008A3007608A4002407790791
:1001C600A5007808A60026072507A70027088400AB
:1001D60022088004840A230880040130A000200835
:1001E600F80704307802031CD12801300800831672
:1001F60003130F168F160F170800FF1B0A29831308
:100206007F1883170008840A0319FF0A08007F086D
:100216007F398A000408840A0319FF0A8200003421
:100226000034003400340034003400340034003428
:100236000034003400340034003400340034003418
:100246000034003400340034003400340034003408
:1002560000340034003400340034C03420342034F8
:10026600203420342034603440344034C034803468
:100276008034003400340034003400340034003458
:1002860000340034803480348034803480348034C8
:1002960000340034003400340034003400340034B8
:1002A60000340034003400340034003400340034A8
:1002B6000034003400340034003400340034003498
:1002C6000034003400340034003400340034003488
:1002D600003400340034003480348034C034403478
:1002E6004034403440344034403440344034403468
:1002F600403440344034C0340034003400340034D8
:100306000034003400340034003400340034003447
:100316000034003400340034003400340034003437
:100326000034003400340034003400340034003427
:100336000034003400340034003400340034003417
:100346000034003400340034003400340034003407
:1003560000340034003400340034013401340234F3
:1003660002340434043404340434043404340434C9
:10037600043405347E3484348434863482348234BE
:1003860042343134003400340034003400341F3435
:1003960000340034003400340034003400340034B7
:1003A60000340034003400340034003400340034A7
:1003B6000034003400340034003480348034403457
:1003C6004034203420341034083408340C340234D9
:1003D6000234013401340134003400340034003472
:1003E6000034003400340034003400340034003467
:1003F60000340034003403340C34F0340034003458
:100406000034003400340034003400340034003446
:100416000034003400340034003400340034003436
:100426000034003400340034003400340034003426
:100436000034003400340034003400340034003416
:100446000034003400340034003400340034003406
:1004560000340034003400340034003400340034F6
:1004660000340034003400340034003400340034E6
:1004760000340034003400340034003400340034D6
:1004860000340034003400340034003400340034C6
:1004960000340034003400340034003400340034B6
:1004A600803480344034203410340834083408341E
:1004B6000434043402340234013400340034003489
:1004C6000034003400340034003400340034003486
:1004D6000034003400340034003400340034003476
:1004E6000034003400340034003400340034003466
:1004F600003400340034003400343F340034003417
:1005060000348034003400340034003400340034C5
:100516000034003400340034003400340034003435
:100526000034003400340034003400340034003425
:10053600003400340034003400340034F834083415
:1005460004340434043404340434043404340434E5
:1005560004340434043404340434043404340434D5
:1005660004340434043404340434043488348834BD
:1005760088340834083408341034103410341034F5
:100586002034203420344034403480348034803465
:100596004034303408340834083404340234013426
:1005A60000340034003400340034003400340034A5
:1005B6000034003400340034003400340034003495
:1005C60000340034003400348034803460343034F5
:1005D6000C34063402343E340034003480340034A3
:1005E6000034003400340034003400340034003465
:1005F6000034003400340034003400340034003455
:10060600003403343C34C034003400340034003445
:100616000034003400340034003400340034003434
:100626000034003400340034003400340034003424
:10063600003400340034003400340034FF34003415
:100646000034003400343C34243424342434243438
:1006560024342434243424342834283438341834C4
:1006660018341C3424342634313419340C3403340D
:100676000034003400340034803480344034403454
:10068600203430340834083406340134003401345C
:10069600013401340234043408340834103420346C
:1006A60040348034003400340034003400340034E4
:1006B60030343834283424342434143414340C3488
:1006C6000C34063406340534053404340434043456
:1006D6000434043402340234033401340034003464
:1006E6000034003400340034003400340034003464
:1006F6000034003400340034003400340034003454
:10070600003400340034FF34003400340034003444
:100716000034003400340034003400340034003433
:100726000034003400340034003400340034003423
:100736000034003400340034003400340734083404
:10074600083410341034303420342034203440340B
:1007560040344034403440344034403440344034F3
:100766002034203410341034083408340834043467
:1007760002340234013401340034003400340034CD
:1007860000340034003400340034003400340034C3
:10079600003400348034E034183408340834043427
:1007A600FC34013402340C3408343034C0340034A0
:1007B6000034003400340034003400340034003493
:1007C6000034003400340034003400340034003483
:1007D6000034003400340034003400340034003473
:1007E6000034003400340034003400340034003463
:1007F60000340034003400340034003400348034D3
:100806008034603430341F34003400340034003413
:100816000034003400340034003400340034003432
:100826000034003400340034003400340034003422
:100836000034003400340034003400340034003412
:100846000034003400340034003400340034003402
:1008560000340034003400340034003400340034F2
:1008660000340034003400340034003400340034E2
:10087600F03418340834083408340834083408349A
:10088600183410343034E034C034403470345034CA
:1008960048344634413420341C340C34003400349B
:1008A60001340034003400340034003400340134A0
:1008B6000334023404340834083408340834083461
:1008C6000834083408340834083408340834083442
:1008D6000834083408340834083408340834083432
:1008E6000834083408340434043404340434043436
:1008F6000434043404340234023401340134003440
:100906000034003400340034003400340034003441
:100916000034003400340034003400340034003431
:100926000034003400340034003400340034003421
:100936000034003400340034003400340034003411
:100946000034003400340034003400340034003401
:1009560000340034003400340034003400340034F1
:1009660000340034003400340034003400340034E1
:1009760001340134013401340134013401340134C9
:1009860001340134013400340034003400340034BE
:1009960000340034003400340034003400340034B1
:1009A60000340034003400340034003400340034A1
:1009B6000034003400340034003400340034003491
:1009C6000034003400340034003400340034003481
:1009D6000034003400340034003400340034003471
:1009E6000034003400340034003400340034003461
:1009F6000034003400340034003400340034003451
:100A06000034003400340034003400340034003440
:100A16000034003400340034003400340034083428
:100A260002340334023449340234103400341034AE
:100A360000341034003410340034003400340034F0
:100A460000343C34003400340034003400340034C4
:100A560000340034003400340034003400340034F0
:100A6600003400340034003400344F340134003490
:100A760000341834003418340034003400340034A0
:100A860000340034003400340034003400340034C0
:100A960000340034003400340034003400340034B0
:100AA600003400340034003400340034003454344C
:100AB6000434003400341034003438340034003444
:100AC6000034003400341034003418340034103448
:100AD6000034003400340034003438340034103428
:100AE6000034003400341034003430340034103410
:100AF60000344C34043400340034103400341034E0
:100B060000341834003400340034083400343834E7
:100B160000340034003400340034303400341034EF
:100B260000341034003400340034003400343834D7
:100B36000034203400344A34043400340034103491
:100B4600003410340034303400340034003420349F
:100B5600003438340034003400340034003418349F
:100B6600003410340034103400340034003420349F
:100B76000034383400340034003453340234003442
:100B86000034183400343034003400340034003477
:100B9600003410340034183400340834003400347F
:100BA600003400340034003400340034003400349F
:100BB60000340034003400340034003400345A3435
:100BC6000234003400343034003418340034003435
:100BD600003400340034083400341834003410343F
:100BE600003400340034003400340034003400345F
:100BF600003400340034003400340034003400344F
:100C06000034F700F5017708023E840083130008DC
:100C160083120313A000840A0008A10077080C3E83
:100C260084000008A20002300310A20DFF3E031D3F
:100C3600172E0310220D023E2007A30021080318D9
:100C4600013EA4007508A500250723078400240893
:100C56000318240AFF008A1100218A11A6008A11AE
:100C660000218A11A7007508A80028077707A900A0
:100C76002908043E8400260883138000840A270876
:100C860080000130A0002008F50704307502031C1F
:100C9600062E770884000008A000143084008530F2
:100CA600FF008A1100218A11A10020082102083EB6
:100CB600A2002208F6007608803A7F3E031C802EAA
:100CC600F3017308A00020077707A1002108043E5E
:100CD6008400760A8313742E0310800D840A800D17
:100CE6008403FF3E031D6F2E0130A0002008F3078A
:100CF6000430730203180800642EF609F60AF4019C
:100D06007408A00020077707A1002108043E84008C
:100D1600760A8313932E840A0310800C8403800CB6
:100D2600FF3E031D8E2E0130A0002008F40704307C
:100D3600740203180800832E83120313A900AA0164
:100D460002308A15C8218A1108308A1578218A113D
:100D56008312031322088A156C218A110830831224
:100D66000313A7002708AE002A08A70027072907AC
:100D7600A8002808840083130008AB00840A000832
:100D8600AC00AF0123082B05A70024082C05A800FA
:100D9600270828040319D32E0F30A7002708AF0011
:100DA60025082B05A70026082C05A80027082804D7
:100DB6000319E12EF030A7002708AF043F302E06B6
:100DC600031D102F2F088A1556218A1101308A1506
:100DD600C8218A118312031322088A156C218A11ED
:100DE60000308A1578218A11831203132F088A1579
:100DF60056218A11831203132F088A1556218A1148
:100E0600831203132F088A1556218A11831203139E
:100E16002F088A1556218A111F2FAD012F088A1512
:100E260056218A11013083120313A7002708AD0744
:100E360005302D02031C112F013083120313A70066
:100E46002708AA070530A7002708AE0780302E021C
:100E560003180800B72E83120313B30033088A154C
:100E660017258A118312031333083C3E840083132B
:100E76000008AC002C08B2000130AC0033083C3E40
:100E860084002C0880070130AC000030AD00330828
:100E9600323E84000008AE00840A0008AF002C0829
:100EA6002E0784002D0803182D0A2F07FF008A112C
:100EB60000218A11B0003008F30033083C3E84005C
:100EC600831300088A156F238A1183120313B10056
:100ED60033083C3E84003108831380003308303EDB
:100EE6008A1104268A11831203133308303E8A15A9
:100EF6004D258A11003A0319892F831203133308EB
:100F06008A15C5258A11003A0319982F83120313EF
:100F16003208AC0033083C3E84002C088313800062
:100F26003308303E8A1104268A11831203133308CC
:100F36008A119620080083120313B0003008303E51
:100F46008A158B228A11003A031D080083120313A7
:100F560030088A1517258A1183120313AE012E084D
:100F6600AC002C073007AD002D08343E8400840AFF
:100F760003108313800C8403800C0130AC002C0812
:100F8600AE0704302E02031CB22F30088A15C52581
:100F96008A11003A0319E92F83120313AF012F08B0
:100FA600AC002C073007AD002D08343E840003103A
:100FB6008313800D840A800D84030130AC002C0855
:100FC600AF0704302F020318F32FD22F01308312FC
:100FD6000313AC003008303E84002C0883138007CE
:100FE60030088A1196200800831203132508C700CB
:0A0FF6002608C800C901CA0108005E
:101260000134003400340034831203138E018F01E3
:1012700008008B170B1683160313011308008A1539
:1012800090218A158A15392108008A15AB218A1503
:10129000003A0319080045293F3083120313A000C8
:1012A0002008F80000308A15362208008312031344
:1012B000A1002108A0002008F80001308A1536227C
:1012C0000800831603130C148312031390100B17DA
:1012D000101410169012080083120313A1002108A5
:1012E000B838A0002008F80000308A15362208001F
:1012F00083120313A10021084038A0002008F80041
:1013000000308A153622080083120313A100210839
:10131000C038A0002008F80000308A1536220800E6
:10132000FF308316031386008316031789011F30CD
:101330008316031395008113080083120313A00082
:101340000030F300F4000430F5000030F60020080F
:101350008A15512208008A15D8218A15F5007508CA
:10136000F700F601F60AF71F771AB729F601760893
:10137000080083120313A9002530A7002708F300F3
:101380000230A8002808F40029088A1584250800DE
:10139000F300F31CCF29831203130710D229831201
:1013A00003130714731CD62987100800871408003C
:1013B000FF3083160313850083120313871507116B
:1013C00008140508F3007308F400081074080800F6
:1013D00083120313AA002A08023E840078088313AC
:1013E0008000840A790880002A088A1104260800EF
:1013F000F50015308400853083120313FF008A1135
:101400000021F300750A840083130008F4007308B8
:101410007402080083120313A2002208A00020080F
:10142000F3000230A1002108F40023308A1554246F
:10143000831203132408F9002308F800080083121C
:101440000313881000000000000000008312031343
:101450008814000000308A156C218A1500308A1526
:1014600078218A1500308A1584210800F9008A1530
:1014700045218A15831603138501831203138711EF
:10148000791C462A831203130715492A8312031372
:101490000711780885000814000083120313081050
:1014A0000800F9007908F7007708F8000130F50224
:1014B0000030031CF603F602750A0319760A0319B5
:1014C00008007308F7007808840077088313800009
:1014D0000130F7007708F807562AF700F801780876
:1014E000F30073077707F4007408043E8400831345
:1014F0000008F500840A0008F600F61F812A013072
:1015000008000130F3007308F80704307802031C68
:101510006F2A00300800F700F8017808F30073071D
:101520007707F4007408043E840083130008F50074
:10153000840A0008F600751C9F2A0130080001305B
:10154000F3007308F80704307802031C8D2A00307A
:10155000080001308A150A228A15790883120313BC
:10156000A6007808A5008A11F7278A1501308A1588
:101570000A228A157808013E83120313A500790810
:101580000318013E003EA60001308A15B92108006B
:1015900083120313C4000030F300F4003F30F50061
:1015A0000030F60044088A1551228A15831203136D
:1015B0004208BD004308BE004408303E8A154C2353
:1015C0008A158312031344088A11962008000B1A07
:1015D0008B1CEB2A8B10831603130C1C012B83121C
:1015E00003130C1C012B0C100130F0007008FA07DB
:1015F0008316031364087A02031C012BE301E30A38
:10160000FA0172088A00710E8300FE0E7E0E090038
:10161000F5007308031D212B750884000310831344
:10162000801C0314003003180130F4007508840096
:1016300000087406FE397406800075088400801462
:10164000080075088400831300107508840080105A
:101650000800831603178901FF30831603138600E1
:10166000FF30950081138312031386018316031341
:1016700088018312031388018316031387018312E1
:10168000031387018316031788018316031385014B
:10169000831203138501080083120313C100123063
:1016A00084008530FF008A1100218A15BF008A114D
:1016B00000218A15C000410884003F088313800080
:1016C000840A4008800041080C3E840080013D08E7
:1016D000F8003E08F90041088A15E8210800F700E3
:1016E0000830F4007408F800F9017708F4000730B6
:1016F0000310F40CFF3E031D782B7908F5007507E5
:101700007404F6007608F9000310F70D73087902E7
:10171000031C8C2B7308F9020130F802031D752B92
:101720007908080083120313B901BA01351C9E2BF6
:101730003708B9070318BA0A3808BA070130031086
:10174000B70DB80DFF3E031D9F2B01300310B60CE3
:10175000B50CFF3E031DA62B35083604031D962B42
:101760003A08B6003908B5000800F500C12B003072
:101770000800013008000330080005300800073079
:1017800008007508F300F4017408003A0319C92B26
:10179000BF2B7308003A0319B72B013A0319B92B71
:1017A000033A0319BB2B013A0319BD2BBF2B0800C9
:1017B00083120313A40124088A156C218A150030B2
:1017C0008A1578218A1583120313A30100308A1524
:1017D00056218A15013083120313A2002208A307A1
:1017E00040302302031CE62B0130A2002208A4078C
:1017F0000830240203180800DB2B8A15CB268A1533
:10180000831203132908B2002808B1000730AF0083
:101810000030B0008A155C278A1583120313300844
:10182000B6002F08B5002230B7000030B8008A1586
:101830009223163083120313BB008530BC00350899
:101840003B07AC0036080318360A3C07AD00080019
:10185000F60000308312031306190130F3007608F6
:101860008A1508238A150030831203138619013064
:10187000F3007608013E8A1508238A15003083128A
:101880000313061A0130F3007608023E8A15082376
:101890008A1500308312031386180130F30076088E
:1018A000033E8A1508230800F7007708F50075083D
:1018B000F600831603178C18592C7308831203172C
:1018C0008D000130F402740A03190800831603170F
:1018D0008C18662C7F30F50075088C050C1483126B
:1018E00003170C08F5007608840075088313800040
:1018F0000130F5007508F6070130F50075088D0711
:10190000612C83120313AD002D088A1517258A1543
:10191000013083120313AC002D08313E84002C08E3
:10192000831380072D088A15C5258A15003A031DE3
:10193000A22C831203132D088A1196208A15003ACF
:10194000031DAF2C831203132D08313E8400013098
:10195000831380022D088A11962000300800013080
:10196000080083120313A700A601A8012808A200FB
:1019700022072707A3002308840083130008A4007C
:10198000840A0008A500240A031DD82C250A031D7B
:10199000D82C2808A2002208F30027088A158826D8
:1019A0008A15013083120313A2002208A607DC2C3B
:1019B0000130A2002208A80718302802031CB62C08
:1019C0002608080083120313B1000230B200003071
:1019D000B3000130B4000030B500B6013608B000E5
:1019E0003008A2003508A4003408A3003308A6007C
:1019F0003208A50031088A119F268A150230831209
:101A000003130310B20DB30DFF3E031D012D023071
:101A10000310B40DB50DFF3E031D082D0130B000BD
:101A20003008B6070830360203180800EE2CF7001D
:101A30007708303E8A15F8218A1583120313A00017
:101A40002008F600F8017808A00020077707A10019
:101A50002108343E840083130008A200840A000891
:101A6000A300A209A3097608A40024077707A5000C
:101A70007808A60026072507A70027088400220863
:101A80008005840A230880050130A0002008F8079B
:101A90000430780203180800232D83120313A900D1
:101AA0002908043EF3000030F4008A1506268A1542
:101AB00083120313A5002908023E84008313000843
:101AC000A600840A0008A70029080C3E840000082C
:101AD000A80002300310A80DFF3E031D6A2D03105D
:101AE000280D023E2607F30027080318013EF400E4
:101AF0008A1506268A15831203132506031D822DD7
:101B00000130080000300800F7007308F500750880
:101B1000F600831603178C18892D7708FF3E831271
:101B200003178D007F30F5007508831603178C05A9
:101B30000130F402740A03190800831603178C1885
:101B40009D2D7608840083130008831203178C00F0
:101B50000130F5007508F6070130F50075088D07AE
:101B60008312031303108B1B03148B1383160317A9
:101B70000C1555308D00AA308D008C140C11831279
:101B80000313031C982D8B17982DF8007808303E0E
:101B90008A15F8218A1583120313A0002008F60085
:101BA000F7017708A00020077807A1007608A200B7
:101BB00022072107A3002308840083130008A40040
:101BC000840A0008A5007708A60026077807A70062
:101BD0002708343E84000008A800840A0008A900F1
:101BE00024082805AA0025082905AB002A082B048B
:101BF0000319FC2D013008000130A0002008F70770
:101C000004307702031CD12D003008008312031327
:101C1000A201A4010130A0000030A100A30124080A
:101C2000F50075077307840074080318740AFF0031
:101C30008A1100218A15F6008A1100218A15F70001
:101C400020087605F80021087705F900780879045E
:101C500003192E2E0130F5007508A207013003107C
:101C6000A00DA10DFF3E031D2F2E0130F5007508BC
:101C7000A30710302302031C0F2E0130F500750856
:101C8000A40704302402031C0A2E22080800003096
:101C9000F7000030F6000030F5000030F400831249
:101CA0000313201C672E2408F407250803110318CA
:101CB000013E031DF507260803110318013E031D0D
:101CC000F607270803110318013E031DF70701302B
:101CD000F3000310A40DA50DA60DA70DF30B692E9F
:101CE00001300310A30CA20CA10CA00CFF3E031D9D
:101CF000712E2308220421042004031D4F2E77088F
:101D0000A3007608A2007508A1007408A0000800CE
:101D100083120313A0007308F4007408A1002108C3
:101D20000319BF2E2108F40074072007F500750879
:101D3000840083130008F600840A0008F700760880
:101D400077040319BF2E2108F40074072007F5005B
:101D50007508FE3E84000008F600840A0008F700BB
:101D60002108F80078072007F90079088400760830
:101D70008000840A770880000130A1028F2E21089C
:101D8000F40074072007F5007508840083138001B0
:101D9000840A80010800831203134A08A30049083B
:101DA000A2004808A1004708A0004130A700C630A3
:101DB000A6004E30A5006D30A4008A1547268A156E
:101DC000831203132308CA002208C9002108C8008F
:101DD0002008C7003930C707303003183130C80732
:101DE000003003180130C907003003180130CA075A
:101DF0004708AA004808AB004908AC004A08AD00F3
:101E00001030AE002D0DAD0CAC0CAB0CAA0CAE0B13
:101E1000022FFF302A05A8007F302B05A9000800FB
:101E200083120313C50045088A1581248A15003AD8
:101E3000031D5A2F8312031345088A15B1248A15EE
:101E400083120313C2004208C40044088A15B52354
:101E50008A1583120313C200C30145083D3E840066
:101E6000420883138007840F00080318000AFF004C
:101E700043087F07800084038A15FD238A15831297
:101E800003132C08BD002D08BE004508303E8A15FE
:101E90004C238A158312031345088A15C5258A1514
:101EA000003A0319552F0030080083120313450828
:101EB0008A1196200130080083120313B401B21F67
:101EC000682FB109B209B10A0319B20AB401B40A00
:101ED000B01F6F2FAF09B009AF0A0319B00A2F085E
:101EE000300403199C2FB301B30AB01B832F0130B8
:101EF0000310AF0DB00DFF3E031D782F0130F80029
:101F00007808B307752F30083202031D892F2F0878
:101F10003102031C912F2F08B1023008031CB203B9
:101F2000B20201300310B00CAF0CFF3E031D922F24
:101F30000130B302031D832F34080319A42FB10904
:101F4000B209B10A0319B20A3208B0003108AF0071
:101F5000080083120313B0003008303E8A156D224A
:101F60008A15003A031D08008312031330088A15EE
:101F700017258A1583120313AE012E08AC002C0717
:101F80003007AD002D08343E840003108313800D0C
:101F9000840A800D84030130AC002C08AE070430A5
:101FA0002E02031CBD2F30088A15C5258A15003A5C
:101FB0000319F42F83120313AF012F08AC002C0771
:101FC0003007AD002D08343E8400840A03108313CB
:101FD000800C8403800C0130AC002C08AF07043067
:101FE0002F020318FC2FDD2F831203133008303E1D
:101FF000840001308313800230088A119620080083
:04400E00F4E0FFFFDC
:06420000000000000000B8
:00000001FF
