:020000040000FA
:100000008A11EE2FFF1B0C2883137F18831700081B
:10001000840A0319FF0A080000308A000408840AD1
:1000200082070034083402340334023402341034BA
:1000300000341034003410340034103400340034F0
:100040000034003400343C340034003400340034D4
:100050000034003400340034003400340034003400
:1000600000340034003400340034003400340134EF
:1000700000340034183400341834003400340034B0
:1000800000340034003400340034003400340034D0
:1000900000340034003400340034003400340034C0
:1000A00000340034003400340034003400340034B0
:1000B0000434003400341034003438340034003454
:1000C0000034003400341034003418340034103458
:1000D0000034003400340034003438340034103438
:1000E0000034003400341034003430340034103420
:0200F0000034DA
:100784000134003400340034F200043084008A114F
:100794000C20F000720A840083130008F100700832
:1007A4007102080083120313A0007C08FD002008D6
:1007B400023E84007D088313800020088A11682784
:1007C400080083120313B000AF01301CED2B2D0879
:1007D400AE002E08AF070310AD0D0310B00C3008A7
:1007E400031DE72B2F0808008A1127248A1183127E
:1007F4000313B5003508B200A0308A1162248A11AF
:10080400A0308A11B1268A11A0308A1108278A11D2
:100814000028F5007508F4007408F6000130F202AF
:100824000030031CF303F302720A0319730A031959
:1008340008007008F40076088400740883138000AC
:100844000130F4007408F607102C213083120313CE
:10085400B1003108AD008A111F268A1183120313D7
:100864002108AA002008A9000330A7000030A8002E
:100874008A1164268A118312031327088A11E32339
:10088400053E0800F400F5017508F00070077407D0
:10089400F1007108033E840083130008F200840A07
:1008A4000008F300F31F582C013008000130F00059
:1008B4007008F50704307502031C462C003008004C
:1008C40083120313B4000030F000F1004E30F20044
:1008D4000030F30034088A110B248A1183120313A5
:1008E4003208B3003308A1003408403E8A11812441
:1008F4008A118312031334088A11C5240800831251
:100904000313A400013084008A110C208A11A20070
:100914008A110C208A11A30024088400220883135E
:100924008000840A2308800024080B3E8400800190
:100934002108A2002208FC0024088A11D4230800FC
:10094400F4000830F1007108F500F6017408F100B4
:1009540007300310F10CFF3E031DAB2C7608F200A8
:1009640072077104F3007308F6000310F40D7008A5
:100974007602031CBF2C7008F6020130F502031D39
:10098400A82C76080800FD007D08403E8A11C62385
:100994008A11F3007308FB00FC017C08F300730761
:1009A4007D07F4007408433E840083130008F500B7
:1009B400840A0008F6007B08F70077077D07F80033
:1009C4007C08F90079077807FA007A08840075082A
:1009D4008004840A760880040130F3007308FC075D
:1009E40004307C0203180800CF2CFC007C08033E72
:1009F400F0000030F1008A11DE258A1183120313FE
:100A0400A0007C080B3E840083130008A10003307F
:100A14000310A10DFF3E031D0A2D7C08023E840035
:100A240000082107A20001302207A3002308F000D8
:100A34000030031D8030F1008A11DE258A118312F3
:100A440003132006031D282D013008000030080080
:100A5400FC007C08403E8A11C6238A11F300730807
:100A6400FB00FD017D08F30073077C07F4007408A4
:100A7400433E840083130008F500840A0008F6004E
:100A8400F509F6097B08F70077077C07F8007D086D
:100A9400F90079077807FA007A0884007508800558
:100AA400840A760880050130F3007308FD070430DA
:100AB4007D0203180800342D0030FC000030FB00D8
:100AC4000030FA000030F900701C7C2D7408F9071E
:100AD400750803110318013E031DFA077608031174
:100AE4000318013E031DFB07770803110318013E99
:100AF400031DFC070130F8000310F40DF50DF60D8D
:100B0400F70DF80B7E2D01300310F30CF20CF10CF1
:100B1400F00CFF3E031D862D7308720471047004EB
:100B2400031D662D7C08F3007B08F2007A08F100AF
:100B34007908F0000800F4007408403E8A11C623C6
:100B44008A1183120313A0002008F300F50175082D
:100B5400A00020077407A1007308A2002207210740
:100B6400A3002308840083130008A400840A000857
:100B7400A5007508A60026077407A7002708433EAA
:100B840084000008A800840A0008A9002408280595
:100B9400AA0025082905AB002A082B040319D42D23
:100BA400013008000130A0002008F5070430750268
:100BB400031CA92D00300800F901FB010130F700E6
:100BC4000030F800FA017B08F20072077007840015
:100BD40071080318710A83120313FF008A1102209B
:100BE4008A11F3008A1102208A11F4007708730530
:100BF400F50078087405F600750876040319062EC6
:100C04000130F2007208F90701300310F70DF80DF6
:100C1400FF3E031D072E0130F2007208FA07103060
:100C24007A02031CE52D0130F2007208FB07043040
:100C34007B02031CE02D7908080083120313390892
:100C4400F3003808F2003708F1003608F0004130AC
:100C5400F700C630F6004E30F5006D30F4008A110E
:100C64005E258A11730883120313B9007208B80051
:100C74007108B7007008B6003930B6073030031871
:100C84003130B707003003180130B80700300318BB
:100C94000130B9073608A2003708A3003808A400B9
:100CA4003908A5001030A600250DA50CA40CA30C32
:100CB400A20CA60B562EFF302205A0007F30230580
:100CC400A100080083120313AC01AA1F702EA90906
:100CD400AA09A90A0319AA0AAC01AC0AA81F772E0B
:100CE400A709A809A70A0319A80A270828040319A9
:100CF400A42EAB01AB0AA81B8B2E01300310A70D49
:100D0400A80DFF3E031D802E0130FD007D08AB07BA
:100D14007D2E28082A02031D912E27082902031C70
:100D2400992E2708A9022808031CAA03AA02013045
:100D34000310A80CA70CFF3E031D9A2E0130AB0232
:100D4400031D8B2E2C080319AC2EA909AA09A90A84
:100D54000319AA0A2A08A8002908A7000800831270
:100D64000313B0003008403E8A1144248A11003A2B
:100D7400031D08008312031330088A112A258A11DF
:100D840083120313AE012E08AC002C073007AD000C
:100D94002D08433E840003108313800D840A800DC4
:100DA40084030130AC002C08AE0704302E02031C6F
:100DB400C52E30088A119D258A11003A0319FC2E8C
:100DC40083120313AF012F08AC002C073007AD00CA
:100DD4002D08433E8400840A03108313800C84038B
:100DE400800C0130AC002C08AF0704302F0203182C
:100DF400042FE52E831203133008403E8400013093
:100E04008313800230088A11C52408008312031357
:100E1400AF002F088A112A258A11831203132F0881
:100E24004B3E840083130008AC002C08AE00013054
:100E3400AC002F084B3E84002C0880072F08423E4C
:100E44008400000884008A110C208A11AC002C084C
:100E5400F0002F084B3E840000088A11A2248A1156
:100E640083120313AD002F084B3E84002D08831317
:100E740080002F08403E8A1168278A1183120313C9
:100E84002F08403E8A11F7248A11003A0319532F80
:100E9400831203132F088A119D258A11003A03191E
:100EA400622F831203132E08AC002F084B3E8400DC
:100EB4002C08831380002F08403E8A1168278A116A
:100EC400831203132F088A11C5240800FB00F901BB
:100ED4007B080B3E840083130008F00003300310EA
:100EE400F00DFF3E031D712F7B08023E84000008B5
:100EF4007007F1007908F20072077107013E84005F
:100F04008A110C208A11F3008A110C208A11F40032
:100F14007908F50075077B07F6007608033E840020
:100F240073088000840A740880000130F00070089F
:100F3400F90704307902031C6A2F7B088400000837
:100F4400F000033084008A110C208A11F10070082B
:100F54007102083EF2007208FA007A08803A7F3E75
:100F6400031CD02FF7017708F00070077B07F1000E
:100F74007108033E84007A0AC42F0310800D840A8A
:100F8400800D8403FF3E031DBF2F0130F000700865
:100F9400F7070430770203180800B52FFA09FA0A94
:100FA400F8017808F00070077B07F1007108033E30
:100FB40084007A0AE22F840A0310800C8403800CD4
:100FC400FF3E031DDD2F0130F0007008F8070430E8
:100FD400780203180800D32F8A11C2238A11B6009D
:100FE4008A11C3238A11B7008A11C4238A11B80055
:0C0FF4008A11C523B90083018A11F62B75
:00000001FF
