:020000040000FA
:100000008A110B280C340C34FE00030EF1000A0890
:10001000F2008A15C92B8A110D28831603138A1141
:1000200002208A11E4008A1103208A11E50083125C
:1000300003138A1582208A11C7008A1583208A112A
:10004000C8008A1584208A11C9008A1585208A1162
:10005000CA008A11FF27FA0083160313E601F9018B
:1000600083018A11852CF500742875083D3E8400B3
:1000700083130008F300840A0008F40000307402BF
:10008000043003197302031C08000930F3007308DD
:10009000E400080075083D3E840083130008F30067
:1000A000840A0008F4000030740208300319730257
:1000B000031C08000630F3007308E400080075080C
:1000C0003D3E840083130008F300840A0008F40016
:1000D000003074020B3003197302031C0800033054
:1000E000F3007308E4000800831603136408F300A8
:1000F000F4017408003A03197E2889287308063A27
:1001000003195F280F3A03194A28053A03193528BD
:100110008928080083120313B0003008303E8A1586
:10012000F3218A11003A031D0800831203133008DB
:100130008A1526258A1183120313AE012E08AC00FE
:100140002C073007AD002D08343E840003108313C4
:10015000800D840A800D84030130AC002C08AE07AA
:1001600004302E02031C9E2830088A1515268A1199
:10017000003A0319D52883120313AF012F08AC00EE
:100180002C073007AD002D08343E8400840A03108C
:100190008313800C8403800C0130AC002C08AF0763
:1001A00004302F020318DD28BE2883120313300801
:1001B000303E840001308313800230088A11C62645
:1001C000080083120313C4000030F300F4003F3032
:1001D000F5000030F60044088A15D5218A118312F3
:1001E00003134208BD004308BE004408303E8A1590
:1001F00092228A118312031344088A11C62608002A
:10020000FF1B0A2983137F1883170008840A031928
:10021000FF0A08007F087F398A000408840A03194E
:10022000FF0A82000034703450345034503450345B
:1002300070340034003420346034203420342034CE
:10024000203400340034203450341034203440340E
:10025000703400340034703410346034103410348E
:10026000603400340034503450345034703410341E
:10027000103400340034703440347034103410348E
:1002800060340034003470344034703450345034AE
:10029000703400340034703410341034203420347E
:1002A00020340034003470345034703450345034BE
:1002B000703400340034703450345034703410349E
:1002C000103400340034EE348834E83428342834D0
:1002D000EE3400340034EE34AA34AE34AC34AA34F4
:1002E000EA3400340034E0348034E0348034803444
:1002F000E03400340034A434A434A434E434A4340A
:10030000A43400340834023403340234383405345D
:1003100049340234103400341034003410340034C2
:100320001034003400340034003400343C340034E1
:10033000003400340034003400340034003400341D
:10034000003400340034003400340034003400340D
:10035000003400344F340134003400341834003495
:1003600018340034003400340034003400340034D5
:1003700000340034003400340034003400340034DD
:1003800000340034003400340034003400340034CD
:100390000034003400340034543404340034003465
:1003A0001034003438340034003400340034003465
:1003B0001034003418340034103400340034003465
:1003C0000034003438340034103400340034003445
:1003D0001034003430340034103400344C340434DD
:1003E0000034003410340034103400341834003435
:1003F0000034003400340034383400342034003405
:1004000000340034303400341034003410340034FC
:1004100000340034083400343834003400340034FC
:100420004A340434003400341034003410340034BE
:100430003034003400340034203400343834003494
:1004400000340034003400341834003410340034E4
:1004500010340034003400340034003438340034B4
:100460000834003453340234003400341834003477
:10047000303400340034003400340034103400349C
:1004800018340034083400340034003400340034AC
:1004900000340034003400340034003400340034BC
:1004A00000340034003400345A3402340034003450
:1004B0003034003418340034003400340034003454
:1004C000083400341834003410340034003400345C
:1004D000003400340034003400340034003400347C
:1004E0000034003400340034003400348A15F7231B
:1004F0008A11831203132D08A4002C08A30037309F
:10050000AE002E08A5008A1587248A1102308A15AC
:1005100031218A1102308A15D7208A1100308A15BC
:10052000E3208A1183120313BF013708AE000230A3
:100530000310AE0DFF3E031D982A03102E0D123E30
:10054000AF0081300318013EB0003F082F07840040
:1005500030080318300AFF008A1100218A11B10007
:1005600004300310B10CFF3E031DB12A3108B20064
:100570003208BC003C08AE002E078A15C0208A1144
:10058000013083120313AE002E08BF0708303F026C
:10059000031C952A01308A15D7208A1100308A154C
:1005A000E3208A1183120313C0013808AE00023021
:1005B0000310AE0DFF3E031DD82A03102E0D123E70
:1005C000AF0081300318013EB00040082F078400BF
:1005D00030080318300AFF008A1100218A11B10087
:1005E0003908B20002300310B20DFF3E031DF32A9A
:1005F0000310320D123EB30081300318013EB400E7
:1006000040083307840034080318340AFF008A11B5
:1006100000218A11B50004300310B50CFF3E031D04
:100620000C2B35083104B6003608BD003D08AE007D
:100630002E078A15C0208A11013083120313AE00E1
:100640002E08C00708304002031CD52A00308A1546
:10065000D7208A1100308A15E3208A1183120313F0
:10066000C1013A08AE0002300310AE0DFF3E031D7B
:10067000342B03102E0D123EAF0081300318013EC3
:10068000B00041082F07840030080318300AFF002B
:100690008A1100218A11B1003B08B2000230031018
:1006A000B20DFF3E031D4F2B0310320D123EB3005F
:1006B00081300318013EB400410833078400340838
:1006C0000318340AFF008A1100218A11B500043092
:1006D0000310B50CFF3E031D682B35083104B6002E
:1006E0003608BE003E08AE002E078A15C0208A11CB
:1006F000013083120313AE002E08C10708304102F7
:1007000003180800312B83120313BD003D083D3E42
:10071000840083130008A300840A0008A400353075
:10072000AC002C08A5008A1587248A1102308A158E
:1007300031218A1107308A15D7208A1100308A1595
:10074000E3208A1183120313BF013508AC00023085
:100750000310AC0DFF3E031DA82B03102C0D123E01
:10076000AD0081300318013EAE003F082D07840024
:100770002E0803182E0AFF008A1100218A11AF00EB
:100780003608B00002300310B00DFF3E031DC32B2E
:100790000310300D123EB10081300318013EB2004B
:1007A0003F083107840032080318320AFF008A111B
:1007B00000218A11B30004300310B30CFF3E031D67
:1007C000DC2B33082F04B4003408BA003A088A1529
:1007D000C0208A11013083120313AC002C08BF071C
:1007E00008303F02031CA52B06308A15D7208A113A
:1007F00000308A15E3208A1183120313C0013708E1
:10080000AC0002300310AC0DFF3E031D022C0310A0
:100810002C0D123EAD0081300318013EAE004008A1
:100820002D0784002E0803182E0AFF008A110021CC
:100830008A11AF003808B00002300310B00DFF3E3F
:10084000031D1D2C0310300D123EB1008130031822
:10085000013EB20040083107840032080318320A12
:10086000FF008A1100218A11B30004300310B30C79
:10087000FF3E031D362C33082F04B4003408BB00A0
:100880003B088A15C0208A11013083120313AC0083
:100890002C08C00708304002031CFF2B05308A15C6
:1008A000D7208A1100308A15E3208A11831203139E
:1008B000BE013908AC0002300310AC0DFF3E031D31
:1008C0005C2C03102C0D123EAD0081300318013E4C
:1008D000AE003E082D0784002E0803182E0AFF00E4
:1008E0008A1100218A11AF002F08BC003C088A152C
:1008F000C0208A11013083120313AC002C08BE07FC
:1009000008303E0203180800592C8A15B8218A11B4
:100910008A1545238A11831203132C08C2002D085F
:10092000C300A5308A11E1208A110C308312031311
:10093000C600460883160313E400A1308A15CB20B5
:100940008A118A1586208A11A5308A1183238A117B
:1009500002308A11EA278A11831203132108AD009D
:100960002008AC008A1176228A11A1308A157023E2
:100970008A1183160313211CC12CA5308A118A20E9
:100980008A1183160313221CC92CA5308A119127C2
:100990008A1183160313241CD12CA5308A115626E4
:1009A0008A1183160313A31CD82CE501E50AE02C59
:1009B000640883120313C600460883160313E50078
:1009C00066080319FF2CE601A5308A15AD278A11A8
:1009D00083120313C600460883160313A0000230D7
:1009E0002006031DFC2CA5308A1183238A11A53013
:1009F0008A1133208A11FF2C20080319042DA530F9
:100A00008A15BC248A11B52C02308A11EA278A1172
:100A1000831603136308831203132102031D162D8B
:100A20008316031362088312031320020318882C11
:100A300083160313630883120313A800831603139A
:100A4000620883120313A70002308A1522218A113B
:100A50008A155C258A11882CF700F5017708023E7B
:100A600084008313000883120313A000840A000883
:100A7000A10077080C3E84000008A2000230031099
:100A8000A20DFF3E031D3F2D0310220D023E200745
:100A9000A30021080318013EA4007508A50025073E
:100AA0002307840024080318240AFF008A11002168
:100AB0008A11A6008A1100218A11A7007508A800D2
:100AC00028077707A9002908043E84002608831315
:100AD0008000840A270880000130A0002008F50764
:100AE00004307502031C2E2D770884000008A00036
:100AF000843084008130FF008A1100218A11A10016
:100B000020082102083EA2002208F6007608803A5A
:100B10007F3E031CA82DF3017308A0002007770770
:100B2000A1002108043E8400760A83139C2D031043
:100B3000800D840A800D8403FF3E031D972D013034
:100B4000A0002008F30704307302031808008C2D5E
:100B5000F609F60AF4017408A00020077707A1003F
:100B60002108043E8400760A8313BB2D840A0310F7
:100B7000800C8403800CFF3E031DB62D0130A000C5
:100B80002008F4070430740203180800AB2D831208
:100B90000313AA00AB0102308A1531218A110830F3
:100BA0008A15E3208A118312031323088A15D7209C
:100BB0008A11083083120313A8002808AF002B08FD
:100BC000A80028072A07A900290884008313000821
:100BD000AC00840A0008AD00B00124082C05A80070
:100BE00025082D05A900280829040319FB2D0F301D
:100BF000A8002808B00026082C05A80027082D0505
:100C0000A900280829040319092EF030A800280893
:100C1000B0043F302F06031D382E30088A15C0203F
:100C20008A1101308A1531218A1183120313230896
:100C30008A15D7208A1100308A15E3208A11831281
:100C4000031330088A15C0208A1183120313300859
:100C50008A15C0208A118312031330088A15C02018
:100C60008A118312031330088A15C0208A11472E77
:100C7000AE0130088A15C0208A1101308312031397
:100C8000A8002808AE0705302E02031C392E0130BB
:100C900083120313A8002808AB070530A800280812
:100CA000AF0780302F0203180800DF2D83120313D3
:100CB000B30033088A1526258A11831203133308DB
:100CC0003C3E840083130008AC002C08B2000130C5
:100CD000AC0033083C3E84002C0880070130AC0097
:100CE0000030AD003308323E84000008AE00840AB4
:100CF0000008AF002C082E0784002D0803182D0AC9
:100D00002F07FF008A1100218A11B0003008F3007C
:100D100033083C3E8400831300088A1520238A117F
:100D200083120313B10033083C3E8400310883135F
:100D300080003308303E8A112C258A118312031358
:100D40003308303E8A15F1248A11003A0319B12E76
:100D50008312031333088A1515268A11003A0319E2
:100D6000C02E831203133208AC0033083C3E8400CB
:100D70002C08831380003308303E8A112C258A11F9
:100D80008312031333088A11C62608008312031343
:100D9000AB002B08303E8A1572218A11831203138F
:100DA000A0002008A800A9012908A00020072B07FF
:100DB000A1002108343E840083130008A200840AA5
:100DC0000008A300220823040319F82E2808290785
:100DD000A000A101A10D2108803AFF0080307F0210
:100DE000031DF42E18302002031CF82E00300800DA
:100DF000013083120313A0002008A9070430290240
:100E0000031CD42EAA012A08A00020072B07A1004A
:100E10002108343E840083130008A200840A0008DD
:100E2000A3002808A40024072B07A5002A08A60071
:100E300026072507A7002708840022088004840AC3
:100E4000230880040130A0002008AA0704302A02E9
:100E5000031C032F0130080002308A1531218A114A
:100E600005308A15D7208A1138308A15E3208A1177
:100E700083120313A60126087A3E840081300318EA
:100E8000013EFF008A1100218A118A15C0208A11B3
:100E9000013083120313A3002308A607083026029B
:100EA000031C3B2FA80138308A15E3208A118312D6
:100EB00003132808043C8A15D7208A1183120313D0
:100EC000A7012808A30002300310A30DFF3E031D55
:100ED000642F0310230D623EA40081300318013EED
:100EE000A50027082407840025080318250AFF0009
:100EF0008A1100218A118A15C0208A1101308312BB
:100F00000313A3002308A70708302702031C612F3F
:100F10000130A3002308A8070330280203180800A3
:100F2000532F83120313B0003008303E8A1511226C
:100F30008A11003A031D08008312031330088A1532
:100F400026258A1183120313AE012E08AC002C074C
:100F50003007AD002D08343E8400840A031083134B
:100F6000800C8403800C0130AC002C08AE070430E8
:100F70002E02031CA52F30088A1515268A11003A67
:100F80000319DC2F83120313AF012F08AC002C07C9
:100F90003007AD002D08343E840003108313800D0C
:100FA000840A800D84030130AC002C08AF070430A4
:100FB0002F020318E62FC52F013083120313AC0054
:100FC0003008303E84002C088313800730088A11D3
:100FD000C626080083120313A6002608A2002208D2
:100FE000F3000230A3002308F40024308A159C2368
:100FF000831203132508A1002408A000080001346F
:101104000134003400340034831203138E018F0140
:1011140008008316031301130B1608008A15072110
:101124008A158A158B200800831603130F168F1651
:101134000F1708008A1514218A15003A03190800AC
:101144009C28831203132708C7002808C800C90174
:10115400CA0108003E3083120313A1002108F800DD
:1011640000308A159B2108003F3083120313A1002D
:101174002108F80000308A159B210800831203130C
:10118400A2002208A1002108F80001308A159B2141
:101194000800F8000030F300F4000430F5000030DB
:1011A400F60078088A15D521080083120313A200DB
:1011B4002208B838A1002108F80000308A159B21C4
:1011C400080083120313A20022084038A10021085A
:1011D400F80000308A159B21080083120313A20033
:1011E4002208C038A1002108F80000308A159B218C
:1011F40008008B17831603130C1483120313901027
:101204000B1710141016901208001F3083160313C6
:1012140095008113831603178901FF308316031386
:10122400860008008A1541218A15F5007508F70023
:10123400F601F60AF71F771A2029F6017608080046
:10124400F800273083120313A9002908F3000230A1
:10125400AA002A08F40078088A15D4250800F300A7
:10126400F31C38298312031387103B2983120313B9
:101274008714731C3F290710080007140800FF3067
:1012840083160313850083120313871507110814AB
:101294000508F3007308F400081074080800F80047
:1012A4007808023E8400831203132A088313800003
:1012B400840A2B08800078088A112C250800F6007F
:1012C400F501761C69297308F4007408F507031006
:1012D400F30D0310F60C7608031D63297508080046
:1012E400F50085308400813083120313FF008A11D6
:1012F4000021F300750A840083130008F4007308C6
:101304007402080083120313881000000000000018
:101314000000831203138814000000308A15D720BC
:101324008A1500308A15E3208A1500308A15EF20CB
:10133400080083120313A0008A159C208A158316C3
:1013440003138501831203138711201CAD29831213
:1013540003130715B02983120313071178088500B6
:101364000814000083120313081008008A1596203D
:101374008A158A152F228A158A15FB208A158A1543
:101384006F228A158A1584218A1503308A15312122
:101394008A158A15FB228A158A15B6208A158A159C
:1013A40090208B17080083120313A1002108F70073
:1013B4007708A0000130F5020030031CF603F602A2
:1013C400750A0319760A031908007308F700200840
:1013D40084007708831380000130F7007708A007A2
:1013E400DC29F700F8017808F30073077707F400A5
:1013F4007408043E840083130008F500840A00087E
:10140400F600F61F072A013008000130F3007308C4
:10141400F80704307802031CF52900300800F700AF
:10142400F8017808F30073077707F4007408043EA2
:10143400840083130008F500840A0008F600751C74
:10144400252A013008000130F3007308F80704303E
:101454007802031C132A0030080000308A11EA279E
:101464008A15831203132108A8002008A7008A15EF
:10147400A3208A1500308A11EA278A1583120313E0
:101484002008013EA70021080318013E003EA800E1
:1014940000308A1522210800F5007308031D672A0D
:1014A4007508840003108313801C03140030031890
:1014B4000130F4007508840000087406FE397406CF
:1014C4008000750884008014080075088400831364
:1014D4000010750884008010080083160317890122
:1014E400FF30831603138600FF30950081138312A7
:1014F40003138601831603138801831203138801DF
:1015040083160313870183120313870183160317BA
:1015140088018316031385018312031385010800D0
:1015240083120313C100823084008130FF008A11CA
:1015340000218A15BF008A1100218A15C0004108C4
:1015440084003F0883138000840A40088000410817
:101554000C3E840080013D08AA003E08AB0041080F
:101564008A155121080083120313B901BA01351CED
:10157400C12A3708B9070318BA0A3808BA0701306C
:101584000310B70DB80DFF3E031DC22A013003102E
:10159400B60CB50CFF3E031DC92A35083604031DDD
:1015A400B92A3A08B6003908B5000800F500E42A5B
:1015B400003008000130080003300800053008003E
:1015C400073008007508F300F4017408003A0319A1
:1015D400EC2AE22A7308003A0319DA2A013A0319B9
:1015E400DC2A033A0319DE2A013A0319E02AE22A23
:1015F400080083120313A50125088A15D7208A152C
:1016040000308A15E3208A1583120313A4010030E5
:101614008A15C0208A15013083120313A3002308FE
:10162400A40740302402031C092B0130A300230823
:10163400A5070830250203180800FE2A83120313A5
:10164400A0000830F4007408A100A2012008F400EE
:1016540007300310F40CFF3E031D2B2B2208F5006A
:1016640075077404F6007608A2000310A00D730831
:101674002202031C3F2B7308A2020130A102031DA6
:10168400282B220808008A151B278A1583120313A6
:101694002908B2002808B1000730AF000030B000BC
:1016A4008A1560278A15831203133008B6002F08A1
:1016B400B5002230B7000030B8008A15B522883052
:1016C40083120313BB008130BC0035083B07AC0018
:1016D40036080318360A3C07AD000800F60000304F
:1016E4008312031306190130F30076088A154E227B
:1016F4008A1500308312031386190130F30076082B
:10170400013E8A154E228A15003083120313061AED
:101714000130F3007608023E8A154E228A15003005
:101724008312031386180130F3007608033E8A15EA
:101734004E220800F7007708F5007508F6008316B6
:1017440003178C18A12B7308831203178D00013023
:10175400F402740A03190800831603178C18AE2BBD
:101764007F30F50075088C050C14831203170C08E0
:10177400F500760884007508831380000130F500B5
:101784007508F6070130F50075088D07A92B0B1AAB
:101794008B1CDA2B1030F000F00BCE2B00008B10DA
:1017A4007A08031DD92BFA01FA0A6300DA2BFA012D
:1017B400831603130C1CF02B831203130C1CF02B45
:1017C4000C100130F0007008F90783160313650844
:1017D4007902031CF02BE601E60AF90172088A007B
:1017E400710E8300FE0E7E0E090002308A1531212F
:1017F4008A1503308A15D7208A1500308A15E3200C
:101804008A1583120313A40124087A3E84008130CC
:101814000318013EFF008A1100218A15A30002303B
:101824000310A30CFF3E031D122C23088A15C020AD
:101834008A15013083120313A3002308A407083078
:10184400240203180800062C83120313AD002D088C
:101854008A1526258A15013083120313AC002D083E
:10186400313E84002C08831380072D088A15152621
:101874008A15003A031D472C831203132D088A117D
:10188400C6268A15003A031D542C831203132D080F
:10189400313E84000130831380022D088A11C6264C
:1018A4000030080001300800F700F601F80178085C
:1018B40083120313A60026077707A70027088400CE
:1018C40083130008A800840A0008A900280A031D3D
:1018D4007D2C290A031D7D2C7808A6002608F30018
:1018E40077088A15D8268A15013083120313A600B7
:1018F4002608F607812C0130A6002608F8071830C0
:101904007802031C592C7608080004308312031350
:10191400A6002608AB000A30F3000030F4002408C7
:10192400F6002308F5008A1596258A157408831293
:101934000313AA007308A900F630A6002608F300D2
:1019440029088A1561218A15831203132307A70026
:101954002B082507A8002808840027088313800083
:101964002A08A4002908A3002B0803190800013041
:10197400AB028D2C83120313B2000230B30000308B
:10198400B4000130B5000030B600B7013708B1002B
:101994003108A3003608A5003508A4003408A700C0
:1019A4003308A60032088A11C7258A15023083122B
:1019B40003130310B30DB40DFF3E031DDB2C0230E3
:1019C4000310B50DB60DFF3E031DE22C0130B1002E
:1019D4003108B7070830370203180800C82C8312EF
:1019E4000313AA002A08043EF3000030F4008A1509
:1019F40056268A15F500831203132A08023E840032
:101A040083130008F600840A0008F7002A080C3E35
:101A140084000008F80002300310F80DFF3E031D97
:101A24000E2D0310780D023E7607F3007708031895
:101A3400013EF4008A1556268A157506031D242DC9
:101A44000130080000300800F7007708303E8A159E
:101A540072218A1583120313A0002008F600F801EE
:101A64007808A00020077707A1002108343E8400ED
:101A740083130008A200840A0008A300A209A30992
:101A84007608A40024077707A5007808A60026078F
:101A94002507A7002708840022088005840A230854
:101AA40080050130A0002008F807043078020318EC
:101AB4000800322D03308A1531218A158A15FB223C
:101AC4008A158A112C278A1583120313AC01073057
:101AD40083120313AB001730AA006A30A900A90BC4
:101AE400712DAA0B712DAB0B712D8A15AC208A15A3
:101AF400073083120313AB001730AA006A30A90021
:101B0400A90B822DAA0B822DAB0B822D8A15B62030
:101B14008A15013083120313A9002908AC07063083
:101B24002C0203180800692D83120313A101A201DA
:101B3400730874040319CF2DA001A00AF41BAE2D61
:101B440001300310F30DF40DFF3E031DA32D0130EE
:101B5400F7007708A007A02D01300310A10DA20DF6
:101B6400FF3E031DAF2D74087602031DBB2D7308C1
:101B74007502031CC42D7308F5027408031CF603D4
:101B8400F602211401300310F40CF30CFF3E031D84
:101B9400C52D0130A002031DAE2D2208F40021083A
:101BA400F3000800F7007308F5007508F6008316C3
:101BB40003178C18D92D7708FF3E831203178D0065
:101BC4007F30F5007508831603178C050130F40285
:101BD400740A03190800831603178C18ED2D760870
:101BE400840083130008831203178C000130F5006E
:101BF4007508F6070130F50075088D078312031385
:101C040003108B1B03148B13831603170C15553009
:101C14008D00AA308D008C140C1183120313031C45
:101C2400E82D8B17E82DF7007708303E8A157221CE
:101C34008A1583120313A0002008F600F80178081F
:101C4400A00020077707A1007608A2002207210739
:101C5400A3002308840083130008A400840A000856
:101C6400A5007808A60026077707A7002708343EB2
:101C740084000008A800840A0008A9002408280594
:101C8400AA0025082905AB002A082B0403194C2EA9
:101C9400013008000130A0002008F8070430780261
:101CA400031C212E0030080083120313A701A9018D
:101CB4000130A5000030A600A8012908A0002007D3
:101CC4007307840074080318740AFF008A11002142
:101CD4008A15A1008A1100218A15A2002508210570
:101CE400A30026082205A4002308240403197E2E39
:101CF4000130A0002008A70701300310A50DA60D90
:101D0400FF3E031D7F2E0130A0002008A8071030DD
:101D14002802031C5F2E0130A0002008A90704300C
:101D24002902031C5A2E270808000030F70000304F
:101D3400F6000030F5000030F40083120313201C79
:101D4400B72E2408F407250803110318013E031DC8
:101D5400F507260803110318013E031DF60727089B
:101D640003110318013E031DF7070130F3000310AC
:101D7400A40DA50DA60DA70DF30BB92E013003106C
:101D8400A30CA20CA10CA00CFF3E031DC12E230822
:101D9400220421042004031D9F2E7708A300760843
:101DA400A2007508A1007408A0000800F4007308DC
:101DB40083120313A0002008F500750803190F2FE0
:101DC4007508A00020077407A1002108840083136C
:101DD4000008A200840A0008A300220823040319AF
:101DE4000F2F7508A00020077407A1002108FE3EEC
:101DF40084000008A200840A0008A3007508A40057
:101E040024077407A5002508840022088000840A9A
:101E1400230880000130F502DF2E7508A00020079A
:101E24007407A1002108840083138001840A8001BF
:101E34000800831203134A08A3004908A2004808B3
:101E4400A1004708A0004130A700C630A6004E30CC
:101E5400A5006D30A4008A1597268A1583120313F2
:101E64002308CA002208C9002108C8002008C700A6
:101E74003930C707303003183130C8070030031831
:101E84000130C907003003180130CA074708AA0007
:101E94004808AB004908AC004A08AD001030AE0059
:101EA4002D0DAD0CAC0CAB0CAA0CAE0B522FFF30AD
:101EB4002A05A8007F302B05A9000800831203130C
:101EC400B401B21F6C2FB109B209B10A0319B20AE5
:101ED400B401B40AB01F732FAF09B009AF0A0319D4
:101EE400B00A2F0830040319A02FB301B30AB01BA2
:101EF400872F01300310AF0DB00DFF3E031D7C2F63
:101F04000130F8007808B307792F30083202031D36
:101F14008D2F2F083102031C952F2F08B102300892
:101F2400031CB203B20201300310B00CAF0CFF3E2D
:101F3400031D962F0130B302031D872F34080319A4
:101F4400A82FB109B209B10A0319B20A3208B000C4
:101F54003108AF00080083120313C50045088A1531
:101F640026248A15003A031DFE2F83120313450805
:101F74008A1556248A1583120313C2004208C4002A
:101F84008A1545238A15831203132C08BD002D08D6
:101F9400BE004508303E8A1592228A158312031327
:101FA40045088A1515268A15003A0319DB2F0030D7
:101FB40008008312031345088A11C6268A15831262
:101FC400031344080319FE2F44088A15D8228312E8
:101FD4000313C200C30145083D3E84004208831335
:101FE4008007840F00080318000AFF0043087F07D6
:0C1FF40080008403023008000130080067
:04400E00F4E0FFFFDC
:084200000000000000000000B6
:00000001FF
